{
  "contractName": "Controller3",
  "abi": [
    {
      "inputs": [
        {
          "internalType": "address",
          "name": "_user",
          "type": "address"
        },
        {
          "internalType": "uint256",
          "name": "_vaultId",
          "type": "uint256"
        },
        {
          "components": [
            {
              "internalType": "enum Actions.ActionType",
              "name": "actionType",
              "type": "uint8"
            },
            {
              "internalType": "address",
              "name": "sender",
              "type": "address"
            },
            {
              "internalType": "address",
              "name": "asset",
              "type": "address"
            },
            {
              "internalType": "uint256",
              "name": "vaultId",
              "type": "uint256"
            },
            {
              "internalType": "uint256",
              "name": "amount",
              "type": "uint256"
            },
            {
              "internalType": "uint256",
              "name": "index",
              "type": "uint256"
            }
          ],
          "internalType": "struct Actions.ActionArgs[]",
          "name": "_actions",
          "type": "tuple[]"
        }
      ],
      "name": "operate",
      "outputs": [],
      "stateMutability": "nonpayable",
      "type": "function"
    },
    {
      "inputs": [
        {
          "internalType": "address",
          "name": "_accountOwner",
          "type": "address"
        }
      ],
      "name": "getAccountData",
      "outputs": [
        {
          "internalType": "address",
          "name": "",
          "type": "address"
        },
        {
          "internalType": "address",
          "name": "",
          "type": "address"
        },
        {
          "internalType": "uint256",
          "name": "",
          "type": "uint256"
        }
      ],
      "stateMutability": "view",
      "type": "function"
    },
    {
      "inputs": [
        {
          "internalType": "address",
          "name": "_sender",
          "type": "address"
        },
        {
          "internalType": "address",
          "name": "_userAccount",
          "type": "address"
        }
      ],
      "name": "isOperator",
      "outputs": [
        {
          "internalType": "bool",
          "name": "",
          "type": "bool"
        }
      ],
      "stateMutability": "view",
      "type": "function"
    },
    {
      "inputs": [
        {
          "internalType": "address",
          "name": "_sender",
          "type": "address"
        },
        {
          "internalType": "address",
          "name": "_userAccount",
          "type": "address"
        }
      ],
      "name": "isOwner",
      "outputs": [
        {
          "internalType": "bool",
          "name": "",
          "type": "bool"
        }
      ],
      "stateMutability": "view",
      "type": "function"
    },
    {
      "inputs": [
        {
          "internalType": "address",
          "name": "_accountOwner",
          "type": "address"
        },
        {
          "internalType": "uint256",
          "name": "_vaultId",
          "type": "uint256"
        }
      ],
      "name": "getVault",
      "outputs": [
        {
          "components": [
            {
              "internalType": "address[]",
              "name": "shortAssets",
              "type": "address[]"
            },
            {
              "internalType": "address[]",
              "name": "longAssets",
              "type": "address[]"
            },
            {
              "internalType": "address[]",
              "name": "collAssets",
              "type": "address[]"
            },
            {
              "internalType": "uint256[]",
              "name": "shortAmounts",
              "type": "uint256[]"
            },
            {
              "internalType": "uint256[]",
              "name": "longAmounts",
              "type": "uint256[]"
            },
            {
              "internalType": "uint256[]",
              "name": "collAmounts",
              "type": "uint256[]"
            }
          ],
          "internalType": "struct MarginAccount.Vault",
          "name": "",
          "type": "tuple"
        }
      ],
      "stateMutability": "view",
      "type": "function"
    },
    {
      "inputs": [
        {
          "internalType": "address",
          "name": "_operator",
          "type": "address"
        },
        {
          "internalType": "address",
          "name": "_accountOwner",
          "type": "address"
        }
      ],
      "name": "isVaultOperator",
      "outputs": [
        {
          "internalType": "bool",
          "name": "",
          "type": "bool"
        }
      ],
      "stateMutability": "view",
      "type": "function"
    },
    {
      "inputs": [
        {
          "components": [
            {
              "internalType": "address[]",
              "name": "shortAssets",
              "type": "address[]"
            },
            {
              "internalType": "address[]",
              "name": "longAssets",
              "type": "address[]"
            },
            {
              "internalType": "address[]",
              "name": "collAssets",
              "type": "address[]"
            },
            {
              "internalType": "uint256[]",
              "name": "shortAmounts",
              "type": "uint256[]"
            },
            {
              "internalType": "uint256[]",
              "name": "longAmounts",
              "type": "uint256[]"
            },
            {
              "internalType": "uint256[]",
              "name": "collAmounts",
              "type": "uint256[]"
            }
          ],
          "internalType": "struct MarginAccount.Vault",
          "name": "_vault",
          "type": "tuple"
        }
      ],
      "name": "verifyFinalState",
      "outputs": [
        {
          "internalType": "bool",
          "name": "",
          "type": "bool"
        }
      ],
      "stateMutability": "nonpayable",
      "type": "function"
    }
  ],
  "bytecode": "0x608060405234801561001057600080fd5b506119ef806100206000396000f3fe608060405234801561001057600080fd5b506004361061007d5760003560e01c80637ddc02d41161005b5780637ddc02d414610114578063b6363cf214610144578063d99d13f514610174578063f28bcf92146101a45761007d565b80630180cc73146100825780635d78650e146100b2578063608e3178146100e4575b600080fd5b61009c600480360381019061009791906114b3565b6101c0565b6040516100a9919061178e565b60405180910390f35b6100cc60048036038101906100c791906113ab565b6101d1565b6040516100db93929190611757565b60405180910390f35b6100fe60048036038101906100f991906113d4565b6102fc565b60405161010b919061178e565b60405180910390f35b61012e600480360381019061012991906113d4565b610390565b60405161013b919061178e565b60405180910390f35b61015e600480360381019061015991906113d4565b6103d8565b60405161016b919061178e565b60405180910390f35b61018e60048036038101906101899190611410565b610420565b60405161019b91906117e9565b60405180910390f35b6101be60048036038101906101b9919061144c565b61073d565b005b600080826000015151119050919050565b60008060006101de610eed565b6000808673ffffffffffffffffffffffffffffffffffffffff1673ffffffffffffffffffffffffffffffffffffffff1681526020019081526020016000206040518060600160405290816000820160009054906101000a900473ffffffffffffffffffffffffffffffffffffffff1673ffffffffffffffffffffffffffffffffffffffff1673ffffffffffffffffffffffffffffffffffffffff1681526020016001820160009054906101000a900473ffffffffffffffffffffffffffffffffffffffff1673ffffffffffffffffffffffffffffffffffffffff1673ffffffffffffffffffffffffffffffffffffffff1681526020016002820154815250509050806000015181602001518260400151935093509350509193909250565b6000600260008473ffffffffffffffffffffffffffffffffffffffff1673ffffffffffffffffffffffffffffffffffffffff16815260200190815260200160002060008373ffffffffffffffffffffffffffffffffffffffff1673ffffffffffffffffffffffffffffffffffffffff16815260200190815260200160002060009054906101000a900460ff16905092915050565b60008061039c836101d1565b505090508073ffffffffffffffffffffffffffffffffffffffff168473ffffffffffffffffffffffffffffffffffffffff161491505092915050565b6000806103e4836101d1565b509150508073ffffffffffffffffffffffffffffffffffffffff168473ffffffffffffffffffffffffffffffffffffffff161491505092915050565b610428610f3a565b600160008473ffffffffffffffffffffffffffffffffffffffff1673ffffffffffffffffffffffffffffffffffffffff16815260200190815260200160002060008381526020019081526020016000206040518060c00160405290816000820180548060200260200160405190810160405280929190818152602001828054801561050857602002820191906000526020600020905b8160009054906101000a900473ffffffffffffffffffffffffffffffffffffffff1673ffffffffffffffffffffffffffffffffffffffff16815260200190600101908083116104be575b505050505081526020016001820180548060200260200160405190810160405280929190818152602001828054801561059657602002820191906000526020600020905b8160009054906101000a900473ffffffffffffffffffffffffffffffffffffffff1673ffffffffffffffffffffffffffffffffffffffff168152602001906001019080831161054c575b505050505081526020016002820180548060200260200160405190810160405280929190818152602001828054801561062457602002820191906000526020600020905b8160009054906101000a900473ffffffffffffffffffffffffffffffffffffffff1673ffffffffffffffffffffffffffffffffffffffff16815260200190600101908083116105da575b505050505081526020016003820180548060200260200160405190810160405280929190818152602001828054801561067c57602002820191906000526020600020905b815481526020019060010190808311610668575b50505050508152602001600482018054806020026020016040519081016040528092919081815260200182805480156106d457602002820191906000526020600020905b8154815260200190600101908083116106c0575b505050505081526020016005820180548060200260200160405190810160405280929190818152602001828054801561072c57602002820191906000526020600020905b815481526020019060010190808311610718575b505050505081525050905092915050565b33836107498282610390565b8061075a575061075982826103d8565b5b610799576040517f08c379a0000000000000000000000000000000000000000000000000000000008152600401610790906117c9565b60405180910390fd5b6107a48585856107cb565b6107ac610f3a565b6107b78686866109b5565b90506107c2816101c0565b50505050505050565b60008090505b81518110156109af576107e2610f70565b8282815181106107ee57fe5b602002602001015190506000816000015190506000600781111561080e57fe5b81600781111561081a57fe5b14156108ee576108666000808873ffffffffffffffffffffffffffffffffffffffff1673ffffffffffffffffffffffffffffffffffffffff168152602001908152602001600020610d4b565b6000808773ffffffffffffffffffffffffffffffffffffffff1673ffffffffffffffffffffffffffffffffffffffff1681526020019081526020016000206002015485146108e9576040517f08c379a00000000000000000000000000000000000000000000000000000000081526004016108e0906117a9565b60405180910390fd5b6109a0565b6007808111156108fa57fe5b81600781111561090657fe5b1461099f5784826060015114801561095f57506000808773ffffffffffffffffffffffffffffffffffffffff1673ffffffffffffffffffffffffffffffffffffffff168152602001908152602001600020600201548511155b61099e576040517f08c379a0000000000000000000000000000000000000000000000000000000008152600401610995906117a9565b60405180910390fd5b5b5b505080806001019150506107d1565b50505050565b6109bd610f3a565b60008090505b8251811015610a34576109d4610f70565b8382815181106109e057fe5b6020026020010151905060008160000151905060016007811115610a0057fe5b816007811115610a0c57fe5b1415610a2557610a2487610a1f84610d62565b610ddc565b5b505080806001019150506109c3565b50600160008573ffffffffffffffffffffffffffffffffffffffff1673ffffffffffffffffffffffffffffffffffffffff16815260200190815260200160002060008481526020019081526020016000206040518060c001604052908160008201805480602002602001604051908101604052809291908181526020018280548015610b1557602002820191906000526020600020905b8160009054906101000a900473ffffffffffffffffffffffffffffffffffffffff1673ffffffffffffffffffffffffffffffffffffffff1681526020019060010190808311610acb575b5050505050815260200160018201805480602002602001604051908101604052809291908181526020018280548015610ba357602002820191906000526020600020905b8160009054906101000a900473ffffffffffffffffffffffffffffffffffffffff1673ffffffffffffffffffffffffffffffffffffffff1681526020019060010190808311610b59575b5050505050815260200160028201805480602002602001604051908101604052809291908181526020018280548015610c3157602002820191906000526020600020905b8160009054906101000a900473ffffffffffffffffffffffffffffffffffffffff1673ffffffffffffffffffffffffffffffffffffffff1681526020019060010190808311610be7575b5050505050815260200160038201805480602002602001604051908101604052809291908181526020018280548015610c8957602002820191906000526020600020905b815481526020019060010190808311610c75575b5050505050815260200160048201805480602002602001604051908101604052809291908181526020018280548015610ce157602002820191906000526020600020905b815481526020019060010190808311610ccd575b5050505050815260200160058201805480602002602001604051908101604052809291908181526020018280548015610d3957602002820191906000526020600020905b815481526020019060010190808311610d25575b50505050508152505090509392505050565b806002016000815480929190600101919050555050565b610d6a610fdd565b60016007811115610d7757fe5b82600001516007811115610d8757fe5b14610d8e57fe5b6040518060800160405280836040015173ffffffffffffffffffffffffffffffffffffffff16815260200183606001518152602001836080015181526020018360a001518152509050919050565b610e52816000015182604001518360600151600160008773ffffffffffffffffffffffffffffffffffffffff1673ffffffffffffffffffffffffffffffffffffffff168152602001908152602001600020600086602001518152602001908152602001600020610e56909392919063ffffffff16565b5050565b82846000018281548110610e6657fe5b9060005260206000200160006101000a81548173ffffffffffffffffffffffffffffffffffffffff021916908373ffffffffffffffffffffffffffffffffffffffff16021790555081846003018281548110610ebe57fe5b906000526020600020015401846003018281548110610ed957fe5b906000526020600020018190555050505050565b6040518060600160405280600073ffffffffffffffffffffffffffffffffffffffff168152602001600073ffffffffffffffffffffffffffffffffffffffff168152602001600081525090565b6040518060c001604052806060815260200160608152602001606081526020016060815260200160608152602001606081525090565b6040518060c0016040528060006007811115610f8857fe5b8152602001600073ffffffffffffffffffffffffffffffffffffffff168152602001600073ffffffffffffffffffffffffffffffffffffffff1681526020016000815260200160008152602001600081525090565b6040518060800160405280600073ffffffffffffffffffffffffffffffffffffffff1681526020016000815260200160008152602001600081525090565b60008135905061102a8161197b565b92915050565b600082601f83011261104157600080fd5b813561105461104f82611838565b61180b565b9150818183526020840193506020810190508385602084028201111561107957600080fd5b60005b838110156110a9578161108f888261101b565b84526020840193506020830192505060018101905061107c565b5050505092915050565b600082601f8301126110c457600080fd5b81356110d76110d282611860565b61180b565b915081818352602084019350602081019050838560c08402820111156110fc57600080fd5b60005b8381101561112c578161111288826111ce565b845260208401935060c083019250506001810190506110ff565b5050505092915050565b600082601f83011261114757600080fd5b813561115a61115582611888565b61180b565b9150818183526020840193506020810190508385602084028201111561117f57600080fd5b60005b838110156111af57816111958882611396565b845260208401935060208301925050600181019050611182565b5050505092915050565b6000813590506111c881611992565b92915050565b600060c082840312156111e057600080fd5b6111ea60c061180b565b905060006111fa848285016111b9565b600083015250602061120e8482850161101b565b60208301525060406112228482850161101b565b604083015250606061123684828501611396565b606083015250608061124a84828501611396565b60808301525060a061125e84828501611396565b60a08301525092915050565b600060c0828403121561127c57600080fd5b61128660c061180b565b9050600082013567ffffffffffffffff8111156112a257600080fd5b6112ae84828501611030565b600083015250602082013567ffffffffffffffff8111156112ce57600080fd5b6112da84828501611030565b602083015250604082013567ffffffffffffffff8111156112fa57600080fd5b61130684828501611030565b604083015250606082013567ffffffffffffffff81111561132657600080fd5b61133284828501611136565b606083015250608082013567ffffffffffffffff81111561135257600080fd5b61135e84828501611136565b60808301525060a082013567ffffffffffffffff81111561137e57600080fd5b61138a84828501611136565b60a08301525092915050565b6000813590506113a5816119a2565b92915050565b6000602082840312156113bd57600080fd5b60006113cb8482850161101b565b91505092915050565b600080604083850312156113e757600080fd5b60006113f58582860161101b565b92505060206114068582860161101b565b9150509250929050565b6000806040838503121561142357600080fd5b60006114318582860161101b565b925050602061144285828601611396565b9150509250929050565b60008060006060848603121561146157600080fd5b600061146f8682870161101b565b935050602061148086828701611396565b925050604084013567ffffffffffffffff81111561149d57600080fd5b6114a9868287016110b3565b9150509250925092565b6000602082840312156114c557600080fd5b600082013567ffffffffffffffff8111156114df57600080fd5b6114eb8482850161126a565b91505092915050565b60006115008383611524565b60208301905092915050565b60006115188383611739565b60208301905092915050565b61152d81611933565b82525050565b61153c81611933565b82525050565b600061154d826118d0565b6115578185611900565b9350611562836118b0565b8060005b8381101561159357815161157a88826114f4565b9750611585836118e6565b925050600181019050611566565b5085935050505092915050565b60006115ab826118db565b6115b58185611911565b93506115c0836118c0565b8060005b838110156115f15781516115d8888261150c565b97506115e3836118f3565b9250506001810190506115c4565b5085935050505092915050565b61160781611945565b82525050565b600061161a601083611922565b91507f496e76616c6964207661756c74206964000000000000000000000000000000006000830152602082019050919050565b600061165a601283611922565b91507f73656e646572206973206e6f74206175746800000000000000000000000000006000830152602082019050919050565b600060c08301600083015184820360008601526116aa8282611542565b915050602083015184820360208601526116c48282611542565b915050604083015184820360408601526116de8282611542565b915050606083015184820360608601526116f882826115a0565b9150506080830151848203608086015261171282826115a0565b91505060a083015184820360a086015261172c82826115a0565b9150508091505092915050565b61174281611971565b82525050565b61175181611971565b82525050565b600060608201905061176c6000830186611533565b6117796020830185611533565b6117866040830184611748565b949350505050565b60006020820190506117a360008301846115fe565b92915050565b600060208201905081810360008301526117c28161160d565b9050919050565b600060208201905081810360008301526117e28161164d565b9050919050565b60006020820190508181036000830152611803818461168d565b905092915050565b6000604051905081810181811067ffffffffffffffff8211171561182e57600080fd5b8060405250919050565b600067ffffffffffffffff82111561184f57600080fd5b602082029050602081019050919050565b600067ffffffffffffffff82111561187757600080fd5b602082029050602081019050919050565b600067ffffffffffffffff82111561189f57600080fd5b602082029050602081019050919050565b6000819050602082019050919050565b6000819050602082019050919050565b600081519050919050565b600081519050919050565b6000602082019050919050565b6000602082019050919050565b600082825260208201905092915050565b600082825260208201905092915050565b600082825260208201905092915050565b600061193e82611951565b9050919050565b60008115159050919050565b600073ffffffffffffffffffffffffffffffffffffffff82169050919050565b6000819050919050565b61198481611933565b811461198f57600080fd5b50565b6008811061199f57600080fd5b50565b6119ab81611971565b81146119b657600080fd5b5056fea2646970667358221220074ddf7261f87e8cc48a76bec454cbfcab7df4bf94e82e8bb69cfe0c498fe02c64736f6c63430006090033",
  "source": "// SPDX-License-Identifier: MIT\npragma solidity 0.6.9;\n\npragma experimental ABIEncoderV2;\n\nimport { MarginAccount } from \"./lib/MarginAccount.sol\";\nimport { Actions } from \"./lib/Actions.sol\";\n\ncontract Controller3\n{\n    using MarginAccount for MarginAccount.Account;\n    using MarginAccount for MarginAccount.Vault;\n\n\n    mapping(address => MarginAccount.Account) internal accounts;\n    mapping(address => mapping(uint256 => MarginAccount.Vault)) internal vaults;\n    mapping(address => mapping(address => bool)) internal accountOperator;\n\n    modifier isAuth(address _sender, address _userAccount) {\n        require(\n            isOwner(_sender, _userAccount) || isOperator(_sender, _userAccount),\n            \"sender is not auth\"\n        );\n\n        _;\n    }\n\n    /// operate function\n    /// _user the address of an account owner\n    /// _vaultId the vaultId\n    /// _actions array of actions\n    function operate(\n        address _user,\n        uint256 _vaultId,\n        Actions.ActionArgs[] memory _actions\n    )\n        external isAuth(msg.sender, _user)\n    {\n\n        // verify inputs\n        // check if the msg.sender is either an account manager/operator or an account owner\n        // if msg.sender is an operator of '_user' account, get '_user' account, else get sender account\n        //address accountAddress = _verifyInputs(msg.sender, _user);\n\n        /// loop through the actions\n        /// if there is a open vault action, increment vault ids in the account\n        /// if there is any action other than Call action, check that action argument vaultId is equal to _vaultId\n        /// and check if _vaultId is less than or equal vaultIds(vault counter)\n        /// so this basically will make sure all the actions belong to one vault\n        _runPreprocessing(_user, _vaultId, _actions);\n\n        // loop through action, run them and return finale vault\n        MarginAccount.Vault memory finalVault = _runActions(\n            _user,\n            _vaultId,\n            _actions\n        );\n\n        // veriy vault, basically checkMarginRequirement function\n        verifyFinalState(\n            finalVault\n        );\n    }\n\n    function getAccountData(address _accountOwner) public view returns (address, address, uint256) {\n        MarginAccount.Account memory account = accounts[_accountOwner];\n\n        return (\n            account.owner,\n            account.operator,\n            account.vaultIds\n        );\n    }\n\n    function isOperator(address _sender, address _userAccount) public view returns (bool) {\n        (, address operator , ) = getAccountData(_userAccount);\n        return _sender == operator;\n    }\n\n    function isOwner(address _sender, address _userAccount) public view returns (bool) {\n        (address owner, , ) = getAccountData(_userAccount);\n        return _sender == owner;\n    }\n\n\n    function getVault(address _accountOwner, uint256 _vaultId) external view returns (MarginAccount.Vault memory) {\n\t\treturn vaults[_accountOwner][_vaultId];\n\t}\n\n    function isVaultOperator(address _operator, address _accountOwner) public view returns (bool) {\n        return accountOperator[_operator][_accountOwner];\n    }\n\n    // check if sender is operator of an account, return the owner address, else return the sender address\n    //function _verifyInputs(address _sender, address _user) internal view returns (address) {\n    //    return accountOperator[_sender][_user] ? _user : _sender;\n    //}\n\n    // will check for Open Vault actions, execute them and make sure there is not vault id greater than vault counter;\n    function _runPreprocessing(\n        address _accountAddress,\n        uint256 _vaultId,\n        Actions.ActionArgs[] memory _actions\n    ) internal {\n        for(uint256 i = 0; i < _actions.length; i++) {\n            Actions.ActionArgs memory action = _actions[i];\n            Actions.ActionType actionType = action.actionType;\n            if (actionType == Actions.ActionType.OpenVault) {\n                accounts[_accountAddress].updateOnOpenVault();\n                \n                require(_vaultId == accounts[_accountAddress].vaultIds, \"Invalid vault id\");\n            }\n            else if (actionType != Actions.ActionType.Call) {\n                require((action.vaultId == _vaultId) && (_vaultId <= accounts[_accountAddress].vaultIds), \"Invalid vault id\");\n            }\n        }\n    }\n\n    function _runActions(\n        address _accountAddress,\n        uint256 _vaultId,\n        Actions.ActionArgs[] memory _actions\n    ) internal returns (MarginAccount.Vault memory) {\n        for (uint256 i = 0; i < _actions.length; i++) {\n            Actions.ActionArgs memory action = _actions[i];\n            Actions.ActionType actionType = action.actionType;\n\n            if (actionType == Actions.ActionType.MintShortOption) {\n                _mint(_accountAddress, Actions.parseMintShortOptionArgs(action));\n            }\n            /*else if (actionType == Actions.ActionType.Withdraw) {\n                _withdraw(state, Actions.parseWithdrawArgs(accounts, action));\n            }\n            else if (actionType == Actions.ActionType.Transfer) {\n                _transfer(state, Actions.parseTransferArgs(accounts, action));\n            }\n            else if (actionType == Actions.ActionType.Buy) {\n                _buy(state, Actions.parseBuyArgs(accounts, action));\n            }\n            else if (actionType == Actions.ActionType.Sell) {\n                _sell(state, Actions.parseSellArgs(accounts, action));\n            }\n            else if (actionType == Actions.ActionType.Trade) {\n                _trade(state, Actions.parseTradeArgs(accounts, action));\n            }\n            else if (actionType == Actions.ActionType.Liquidate) {\n                _liquidate(state, Actions.parseLiquidateArgs(accounts, action), cache);\n            }\n            else if (actionType == Actions.ActionType.Vaporize) {\n                _vaporize(state, Actions.parseVaporizeArgs(accounts, action), cache);\n            }\n            else  {\n                assert(actionType == Actions.ActionType.Call);\n                _call(state, Actions.parseCallArgs(accounts, action));\n            }*/\n        }\n\n        return vaults[_accountAddress][_vaultId];\n    }\n\n    function _mint(\n        address _accountAddress,\n        Actions.MintShortOptionArgs memory args\n    )\n        private\n    {\n        vaults[_accountAddress][args.vaultId].updateOnMintShort(args.shortOption, args.amount, args.index);\n\n        // call Otoken mint\n    }\n\n    function verifyFinalState(\n        MarginAccount.Vault memory _vault\n    ) public returns (bool) {\n        return _vault.shortAssets.length > 0;\n    }\n\n}\n",
  "sourcePath": "/Users/haythem96/Projects/testStruct/contracts/DyDx/Controller3.sol",
  "compiler": {
    "name": "solc",
    "version": "0.6.9+commit.3e3065ac.Emscripten.clang"
  },
  "schemaVersion": "3.0.23",
  "updatedAt": "2020-07-13T11:19:31.107Z",
  "devdoc": {
    "methods": {}
  },
  "userdoc": {
    "methods": {
      "operate(address,uint256,(uint8,address,address,uint256,uint256,uint256)[])": {
        "notice": "operate function _user the address of an account owner _vaultId the vaultId _actions array of actions"
      }
    }
  }
}