{
  "contractName": "ContractA",
  "abi": [
    {
      "inputs": [],
      "stateMutability": "nonpayable",
      "type": "constructor"
    },
    {
      "inputs": [
        {
          "components": [
            {
              "internalType": "uint256",
              "name": "a",
              "type": "uint256"
            },
            {
              "internalType": "uint256",
              "name": "b",
              "type": "uint256"
            }
          ],
          "internalType": "struct ContractA.Vault",
          "name": "finalVault",
          "type": "tuple"
        }
      ],
      "name": "updateVault",
      "outputs": [],
      "stateMutability": "nonpayable",
      "type": "function"
    },
    {
      "inputs": [
        {
          "internalType": "uint256",
          "name": "id",
          "type": "uint256"
        }
      ],
      "name": "getVault",
      "outputs": [
        {
          "components": [
            {
              "internalType": "uint256",
              "name": "a",
              "type": "uint256"
            },
            {
              "internalType": "uint256",
              "name": "b",
              "type": "uint256"
            }
          ],
          "internalType": "struct ContractA.Vault",
          "name": "",
          "type": "tuple"
        }
      ],
      "stateMutability": "view",
      "type": "function"
    }
  ],
  "bytecode": "0x608060405234801561001057600080fd5b50610019610063565b604051806040016040528060058152602001600a8152509050806000806001815260200190815260200160002060008201518160000155602082015181600101559050505061007d565b604051806040016040528060008152602001600081525090565b61029f8061008c6000396000f3fe608060405234801561001057600080fd5b50600436106100365760003560e01c80639403b6341461003b578063ac41b8051461006b575b600080fd5b61005560048036038101906100509190610199565b610087565b6040516100629190610200565b60405180910390f35b61008560048036038101906100809190610170565b6100c7565b005b61008f6100f5565b600080838152602001908152602001600020604051806040016040529081600082015481526020016001820154815250509050919050565b8060008060018152602001908152602001600020600082015181600001556020820151816001015590505050565b604051806040016040528060008152602001600081525090565b60006040828403121561012157600080fd5b61012b604061021b565b9050600061013b8482850161015b565b600083015250602061014f8482850161015b565b60208301525092915050565b60008135905061016a81610252565b92915050565b60006040828403121561018257600080fd5b60006101908482850161010f565b91505092915050565b6000602082840312156101ab57600080fd5b60006101b98482850161015b565b91505092915050565b6040820160008201516101d860008501826101f1565b5060208201516101eb60208501826101f1565b50505050565b6101fa81610248565b82525050565b600060408201905061021560008301846101c2565b92915050565b6000604051905081810181811067ffffffffffffffff8211171561023e57600080fd5b8060405250919050565b6000819050919050565b61025b81610248565b811461026657600080fd5b5056fea264697066735822122099980291d94befd9c6c8fcca6fec61420bbfe5e850b298bd5fc94a03069dcf5c64736f6c63430006090033",
  "source": "// SPDX-License-Identifier: MIT\npragma solidity 0.6.9;\n\npragma experimental ABIEncoderV2;\n\ncontract ContractA {\n\n  mapping (uint256 => Vault) vaults;\n\n  struct Vault{\n    uint256 a;\n    uint256 b;\n  }\n  constructor() public {\n    Vault memory vault = Vault(5, 10);\n    vaults[1] = vault;\n  }\n\n  function updateVault(Vault memory finalVault) external {\n    vaults[1] = finalVault;\n  }\n\n  function getVault(uint256 id) external view returns (Vault memory) {\n    return vaults[id];\n  }\n\n}\n",
  "sourcePath": "/Users/haythem96/Projects/testStruct/contracts/ContractA.sol",
  "compiler": {
    "name": "solc",
    "version": "0.6.9+commit.3e3065ac.Emscripten.clang"
  },
  "schemaVersion": "3.0.23",
  "updatedAt": "2020-07-01T23:57:37.083Z",
  "devdoc": {
    "methods": {}
  },
  "userdoc": {
    "methods": {}
  }
}