{
  "contractName": "Controller",
  "abi": [
    {
      "inputs": [
        {
          "internalType": "address",
          "name": "_calculator",
          "type": "address"
        }
      ],
      "stateMutability": "nonpayable",
      "type": "constructor"
    },
    {
      "inputs": [
        {
          "internalType": "address",
          "name": "_user",
          "type": "address"
        }
      ],
      "name": "getVaultCounter",
      "outputs": [
        {
          "internalType": "uint256",
          "name": "",
          "type": "uint256"
        }
      ],
      "stateMutability": "view",
      "type": "function"
    },
    {
      "inputs": [
        {
          "internalType": "address",
          "name": "_user",
          "type": "address"
        },
        {
          "internalType": "uint256",
          "name": "_vaultId",
          "type": "uint256"
        }
      ],
      "name": "getVault",
      "outputs": [
        {
          "internalType": "address[]",
          "name": "shortAssets",
          "type": "address[]"
        },
        {
          "internalType": "address[]",
          "name": "longAssets",
          "type": "address[]"
        },
        {
          "internalType": "address[]",
          "name": "collAssets",
          "type": "address[]"
        },
        {
          "internalType": "uint256[]",
          "name": "shortAmount",
          "type": "uint256[]"
        },
        {
          "internalType": "uint256[]",
          "name": "longAmount",
          "type": "uint256[]"
        },
        {
          "internalType": "uint256[]",
          "name": "collAmount",
          "type": "uint256[]"
        }
      ],
      "stateMutability": "view",
      "type": "function"
    },
    {
      "inputs": [
        {
          "internalType": "address[]",
          "name": "_shortAssets",
          "type": "address[]"
        },
        {
          "internalType": "address[]",
          "name": "_longAssets",
          "type": "address[]"
        },
        {
          "internalType": "address[]",
          "name": "_collAssets",
          "type": "address[]"
        },
        {
          "internalType": "uint256[]",
          "name": "_shortAmounts",
          "type": "uint256[]"
        },
        {
          "internalType": "uint256[]",
          "name": "_longAmounts",
          "type": "uint256[]"
        },
        {
          "internalType": "uint256[]",
          "name": "_collAmounts",
          "type": "uint256[]"
        },
        {
          "internalType": "address",
          "name": "_user",
          "type": "address"
        }
      ],
      "name": "openVault",
      "outputs": [],
      "stateMutability": "nonpayable",
      "type": "function"
    }
  ],
  "bytecode": "0x60806040523480156200001157600080fd5b50604051620012eb380380620012eb833981810160405281019062000037919062000095565b806000806101000a81548173ffffffffffffffffffffffffffffffffffffffff021916908373ffffffffffffffffffffffffffffffffffffffff160217905550506200010f565b6000815190506200008f81620000f5565b92915050565b600060208284031215620000a857600080fd5b6000620000b8848285016200007e565b91505092915050565b6000620000ce82620000d5565b9050919050565b600073ffffffffffffffffffffffffffffffffffffffff82169050919050565b6200010081620000c1565b81146200010c57600080fd5b50565b6111cc806200011f6000396000f3fe608060405234801561001057600080fd5b50600436106100415760003560e01c806331e5323b14610046578063664b09de14610076578063d99d13f514610092575b600080fd5b610060600480360381019061005b9190610c1a565b6100c7565b60405161006d9190611011565b60405180910390f35b610090600480360381019061008b9190610c7f565b610118565b005b6100ac60048036038101906100a79190610c43565b6102a3565b6040516100be96959493929190610f46565b60405180910390f35b600080600160008473ffffffffffffffffffffffffffffffffffffffff1673ffffffffffffffffffffffffffffffffffffffff16815260200190815260200160002090508060000154915050919050565b835187511461015c576040517f08c379a000000000000000000000000000000000000000000000000000000000815260040161015390610fd1565b60405180910390fd5b82518651146101a0576040517f08c379a000000000000000000000000000000000000000000000000000000000815260040161019790610fd1565b60405180910390fd5b81518551146101e4576040517f08c379a00000000000000000000000000000000000000000000000000000000081526004016101db90610fd1565b60405180910390fd5b6000600160008373ffffffffffffffffffffffffffffffffffffffff1673ffffffffffffffffffffffffffffffffffffffff168152602001908152602001600020905061029981898989898989600260008b73ffffffffffffffffffffffffffffffffffffffff1673ffffffffffffffffffffffffffffffffffffffff16815260200190815260200160002060008a6000015481526020019081526020016000206103b190979695949392919063ffffffff16565b5050505050505050565b6060806060806060806000600160008a73ffffffffffffffffffffffffffffffffffffffff1673ffffffffffffffffffffffffffffffffffffffff16815260200190815260200160002090508781600001541015610336576040517f08c379a000000000000000000000000000000000000000000000000000000000815260040161032d90610ff1565b60405180910390fd5b61038e600260008b73ffffffffffffffffffffffffffffffffffffffff1673ffffffffffffffffffffffffffffffffffffffff16815260200190815260200160002060008a81526020019081526020016000206105e6565b809750819850829950839a50849b50859c50505050505050509295509295509295565b60008090505b8c8c90508160ff1610156104505786868260ff168181106103d457fe5b905060200201358f60030160008f8f8560ff168181106103f057fe5b90506020020160208101906104059190610c1a565b73ffffffffffffffffffffffffffffffffffffffff1673ffffffffffffffffffffffffffffffffffffffff1681526020019081526020016000208190555080806001019150506103b7565b5060008090505b8a8a90508160ff1610156104f05784848260ff1681811061047457fe5b905060200201358f60040160008d8d8560ff1681811061049057fe5b90506020020160208101906104a59190610c1a565b73ffffffffffffffffffffffffffffffffffffffff1673ffffffffffffffffffffffffffffffffffffffff168152602001908152602001600020819055508080600101915050610457565b5060008090505b888890508160ff1610156105905782828260ff1681811061051457fe5b905060200201358f60050160008b8b8560ff1681811061053057fe5b90506020020160208101906105459190610c1a565b73ffffffffffffffffffffffffffffffffffffffff1673ffffffffffffffffffffffffffffffffffffffff1681526020019081526020016000208190555080806001019150506104f7565b508b8b8f60000191906105a4929190610a07565b5089898f60010191906105b8929190610a07565b5087878f60020191906105cc929190610a07565b506105d68d6109f0565b5050505050505050505050505050565b606080606080606080606080606060008090505b8a600001805490508160ff1610156106b2578a60030160008c6000018360ff168154811061062457fe5b9060005260206000200160009054906101000a900473ffffffffffffffffffffffffffffffffffffffff1673ffffffffffffffffffffffffffffffffffffffff1673ffffffffffffffffffffffffffffffffffffffff16815260200190815260200160002054848260ff168151811061069957fe5b60200260200101818152505080806001019150506105fa565b5060008090505b8a600101805490508160ff161015610771578a60040160008c6001018360ff16815481106106e357fe5b9060005260206000200160009054906101000a900473ffffffffffffffffffffffffffffffffffffffff1673ffffffffffffffffffffffffffffffffffffffff1673ffffffffffffffffffffffffffffffffffffffff16815260200190815260200160002054838260ff168151811061075857fe5b60200260200101818152505080806001019150506106b9565b5060008090505b8a600201805490508160ff161015610830578a60050160008c6002018360ff16815481106107a257fe5b9060005260206000200160009054906101000a900473ffffffffffffffffffffffffffffffffffffffff1673ffffffffffffffffffffffffffffffffffffffff1673ffffffffffffffffffffffffffffffffffffffff16815260200190815260200160002054828260ff168151811061081757fe5b6020026020010181815250508080600101915050610778565b50896000018a6001018b600201858585858054806020026020016040519081016040528092919081815260200182805480156108c157602002820191906000526020600020905b8160009054906101000a900473ffffffffffffffffffffffffffffffffffffffff1673ffffffffffffffffffffffffffffffffffffffff1681526020019060010190808311610877575b505050505095508480548060200260200160405190810160405280929190818152602001828054801561094957602002820191906000526020600020905b8160009054906101000a900473ffffffffffffffffffffffffffffffffffffffff1673ffffffffffffffffffffffffffffffffffffffff16815260200190600101908083116108ff575b50505050509450838054806020026020016040519081016040528092919081815260200182805480156109d157602002820191906000526020600020905b8160009054906101000a900473ffffffffffffffffffffffffffffffffffffffff1673ffffffffffffffffffffffffffffffffffffffff1681526020019060010190808311610987575b5050505050935098509850985098509850985050505091939550919395565b806000016000815480929190600101919050555050565b828054828255906000526020600020908101928215610a96579160200282015b82811115610a9557823573ffffffffffffffffffffffffffffffffffffffff168260006101000a81548173ffffffffffffffffffffffffffffffffffffffff021916908373ffffffffffffffffffffffffffffffffffffffff16021790555091602001919060010190610a27565b5b509050610aa39190610aa7565b5090565b610ae791905b80821115610ae357600081816101000a81549073ffffffffffffffffffffffffffffffffffffffff021916905550600101610aad565b5090565b90565b600081359050610af981611168565b92915050565b600082601f830112610b1057600080fd5b8135610b23610b1e82611059565b61102c565b91508181835260208401935060208101905083856020840282011115610b4857600080fd5b60005b83811015610b785781610b5e8882610aea565b845260208401935060208301925050600181019050610b4b565b5050505092915050565b600082601f830112610b9357600080fd5b8135610ba6610ba182611081565b61102c565b91508181835260208401935060208101905083856020840282011115610bcb57600080fd5b60005b83811015610bfb5781610be18882610c05565b845260208401935060208301925050600181019050610bce565b5050505092915050565b600081359050610c148161117f565b92915050565b600060208284031215610c2c57600080fd5b6000610c3a84828501610aea565b91505092915050565b60008060408385031215610c5657600080fd5b6000610c6485828601610aea565b9250506020610c7585828601610c05565b9150509250929050565b600080600080600080600060e0888a031215610c9a57600080fd5b600088013567ffffffffffffffff811115610cb457600080fd5b610cc08a828b01610aff565b975050602088013567ffffffffffffffff811115610cdd57600080fd5b610ce98a828b01610aff565b965050604088013567ffffffffffffffff811115610d0657600080fd5b610d128a828b01610aff565b955050606088013567ffffffffffffffff811115610d2f57600080fd5b610d3b8a828b01610b82565b945050608088013567ffffffffffffffff811115610d5857600080fd5b610d648a828b01610b82565b93505060a088013567ffffffffffffffff811115610d8157600080fd5b610d8d8a828b01610b82565b92505060c0610d9e8a828b01610aea565b91505092959891949750929550565b6000610db98383610ddd565b60208301905092915050565b6000610dd18383610f28565b60208301905092915050565b610de68161112c565b82525050565b6000610df7826110c9565b610e0181856110f9565b9350610e0c836110a9565b8060005b83811015610e3d578151610e248882610dad565b9750610e2f836110df565b925050600181019050610e10565b5085935050505092915050565b6000610e55826110d4565b610e5f818561110a565b9350610e6a836110b9565b8060005b83811015610e9b578151610e828882610dc5565b9750610e8d836110ec565b925050600181019050610e6e565b5085935050505092915050565b6000610eb5600c8361111b565b91507f6572726f72206c656e67746800000000000000000000000000000000000000006000830152602082019050919050565b6000610ef5600e8361111b565b91507f6572726f72207661756c742069640000000000000000000000000000000000006000830152602082019050919050565b610f318161115e565b82525050565b610f408161115e565b82525050565b600060c0820190508181036000830152610f608189610dec565b90508181036020830152610f748188610dec565b90508181036040830152610f888187610dec565b90508181036060830152610f9c8186610e4a565b90508181036080830152610fb08185610e4a565b905081810360a0830152610fc48184610e4a565b9050979650505050505050565b60006020820190508181036000830152610fea81610ea8565b9050919050565b6000602082019050818103600083015261100a81610ee8565b9050919050565b60006020820190506110266000830184610f37565b92915050565b6000604051905081810181811067ffffffffffffffff8211171561104f57600080fd5b8060405250919050565b600067ffffffffffffffff82111561107057600080fd5b602082029050602081019050919050565b600067ffffffffffffffff82111561109857600080fd5b602082029050602081019050919050565b6000819050602082019050919050565b6000819050602082019050919050565b600081519050919050565b600081519050919050565b6000602082019050919050565b6000602082019050919050565b600082825260208201905092915050565b600082825260208201905092915050565b600082825260208201905092915050565b60006111378261113e565b9050919050565b600073ffffffffffffffffffffffffffffffffffffffff82169050919050565b6000819050919050565b6111718161112c565b811461117c57600080fd5b50565b6111888161115e565b811461119357600080fd5b5056fea2646970667358221220dd8e60e289914d0dd229c0c572da3894b7028a89cd13ef275c5679c48cdf9e0c64736f6c63430006090033",
  "source": "// SPDX-License-Identifier: MIT\npragma solidity 0.6.9;\n\n\npragma experimental ABIEncoderV2;\n\nimport \"./MarginAccountLib.sol\";\nimport \"./MarginCalculator.sol\";\n\n///@notice using the commented implementation, we will encounter stack too deep error\ncontract Controller {\n    \n    using MarginAccountLib for MarginAccountLib.Account;\n    using MarginAccountLib for MarginAccountLib.Vault;\n\n    MarginCalculator calculator;\n\n    mapping(address => MarginAccountLib.Account) internal accounts;\n    mapping(address => mapping(uint256 => MarginAccountLib.Vault)) internal accountVaults;\n\n    constructor(address _calculator) public {\n        calculator = MarginCalculator(_calculator);\n    }\n\n\n    function getVaultCounter(address _user) external view returns (uint256) {\n        MarginAccountLib.Account storage account = accounts[_user];\n\n        return account.vaultCounter;\n    }\n\n    function getVault(address _user, uint256 _vaultId) external view returns (\n        address[] memory shortAssets,\n\t\taddress[] memory longAssets,\n\t\taddress[] memory collAssets,\n\t\tuint256[] memory shortAmount,\n\t\tuint256[] memory longAmount,\n\t\tuint256[] memory collAmount\n    ) {\n        MarginAccountLib.Account storage account = accounts[_user];\n\n        require(account.vaultCounter >= _vaultId, \"error vault id\");\n\n\t\t(shortAssets, longAssets, collAssets, shortAmount, longAmount, collAmount) = accountVaults[_user][_vaultId].getVault();\n\t}\n\n    function openVault(\n\t\taddress[] memory _shortAssets,\n\t\taddress[] memory _longAssets,\n\t\taddress[] memory _collAssets,\n\t\tuint256[] memory _shortAmounts,\n\t\tuint256[] memory _longAmounts,\n\t\tuint256[] memory _collAmounts,\n        address _user\n    ) external {\n        require(_shortAssets.length == _shortAmounts.length, \"error length\");\n        require(_longAssets.length == _longAmounts.length, \"error length\");\n        require(_collAssets.length == _collAmounts.length, \"error length\");\n\n        MarginAccountLib.Account storage account = accounts[_user];\n\n        accountVaults[_user][account.vaultCounter].updateOnOpen(\n            account,\n            _shortAssets,\n            _longAssets,\n            _collAssets,\n            _shortAmounts,\n            _longAmounts,\n            _collAmounts\n        );\n    }    \n\n    /*function checkMarginRequirement(\n        MarginAccountLib.RemarginVault memory modificationVault,\n        address _user,\n        uint256 _vaultId\n    ) external view returns (bool, uint256) {\n        MarginAccountLib.Vault memory vault = accountVaults[_user][_vaultId];\n\n        MarginAccountLib.Vault vaultFinalState = updateShort(vault, modificationVault);\n        \n        calculator.marginRequirement(vaultFinalState);\n    }*/\n\n    /*function closeVault(\n        address _user,\n        uint256 _vaultId\n    ) external {\n        MarginAccountLib.Account memory account = accounts[_user];\n\n        require(account.vaultCounter >= _vaultId, \"error vault id\");\n\n        delete accountVaults[_user][_vaultId];\n    }*/\n\n}",
  "sourcePath": "/Users/haythem96/Projects/testStruct/contracts/impl1/Controller.sol",
  "compiler": {
    "name": "solc",
    "version": "0.6.9+commit.3e3065ac.Emscripten.clang"
  },
  "schemaVersion": "3.0.23",
  "updatedAt": "2020-07-04T17:13:17.675Z",
  "devdoc": {
    "methods": {}
  },
  "userdoc": {
    "methods": {},
    "notice": "using the commented implementation, we will encounter stack too deep error"
  }
}