{
  "contractName": "Controller3",
  "abi": [
    {
      "inputs": [
        {
          "internalType": "address",
          "name": "_user",
          "type": "address"
        },
        {
          "internalType": "uint256",
          "name": "_vaultId",
          "type": "uint256"
        },
        {
          "components": [
            {
              "internalType": "enum Actions.ActionType",
              "name": "actionType",
              "type": "uint8"
            },
            {
              "internalType": "address",
              "name": "sender",
              "type": "address"
            },
            {
              "internalType": "address",
              "name": "asset",
              "type": "address"
            },
            {
              "internalType": "uint256",
              "name": "vaultId",
              "type": "uint256"
            },
            {
              "internalType": "uint256",
              "name": "amount",
              "type": "uint256"
            },
            {
              "internalType": "uint256",
              "name": "index",
              "type": "uint256"
            }
          ],
          "internalType": "struct Actions.ActionArgs[]",
          "name": "_actions",
          "type": "tuple[]"
        }
      ],
      "name": "operate",
      "outputs": [],
      "stateMutability": "nonpayable",
      "type": "function"
    },
    {
      "inputs": [
        {
          "internalType": "address",
          "name": "_accountOwner",
          "type": "address"
        }
      ],
      "name": "getAccountData",
      "outputs": [
        {
          "internalType": "address",
          "name": "",
          "type": "address"
        },
        {
          "internalType": "address",
          "name": "",
          "type": "address"
        },
        {
          "internalType": "uint256",
          "name": "",
          "type": "uint256"
        }
      ],
      "stateMutability": "view",
      "type": "function",
      "constant": true
    },
    {
      "inputs": [
        {
          "internalType": "address",
          "name": "_accountOwner",
          "type": "address"
        },
        {
          "internalType": "uint256",
          "name": "_vaultId",
          "type": "uint256"
        }
      ],
      "name": "getVault",
      "outputs": [
        {
          "components": [
            {
              "internalType": "address[]",
              "name": "shortAssets",
              "type": "address[]"
            },
            {
              "internalType": "address[]",
              "name": "longAssets",
              "type": "address[]"
            },
            {
              "internalType": "address[]",
              "name": "collAssets",
              "type": "address[]"
            },
            {
              "internalType": "uint256[]",
              "name": "shortAmounts",
              "type": "uint256[]"
            },
            {
              "internalType": "uint256[]",
              "name": "longAmounts",
              "type": "uint256[]"
            },
            {
              "internalType": "uint256[]",
              "name": "collAmounts",
              "type": "uint256[]"
            }
          ],
          "internalType": "struct MarginAccount.Vault",
          "name": "",
          "type": "tuple"
        }
      ],
      "stateMutability": "view",
      "type": "function",
      "constant": true
    },
    {
      "inputs": [
        {
          "internalType": "address",
          "name": "_operator",
          "type": "address"
        },
        {
          "internalType": "address",
          "name": "_accountOwner",
          "type": "address"
        }
      ],
      "name": "isVaultOperator",
      "outputs": [
        {
          "internalType": "bool",
          "name": "",
          "type": "bool"
        }
      ],
      "stateMutability": "view",
      "type": "function",
      "constant": true
    },
    {
      "inputs": [
        {
          "components": [
            {
              "internalType": "address[]",
              "name": "shortAssets",
              "type": "address[]"
            },
            {
              "internalType": "address[]",
              "name": "longAssets",
              "type": "address[]"
            },
            {
              "internalType": "address[]",
              "name": "collAssets",
              "type": "address[]"
            },
            {
              "internalType": "uint256[]",
              "name": "shortAmounts",
              "type": "uint256[]"
            },
            {
              "internalType": "uint256[]",
              "name": "longAmounts",
              "type": "uint256[]"
            },
            {
              "internalType": "uint256[]",
              "name": "collAmounts",
              "type": "uint256[]"
            }
          ],
          "internalType": "struct MarginAccount.Vault",
          "name": "_vault",
          "type": "tuple"
        }
      ],
      "name": "verifyFinalState",
      "outputs": [
        {
          "internalType": "bool",
          "name": "",
          "type": "bool"
        }
      ],
      "stateMutability": "nonpayable",
      "type": "function"
    }
  ],
  "bytecode": "0x608060405234801561001057600080fd5b506118ca806100206000396000f3fe608060405234801561001057600080fd5b50600436106100575760003560e01c80630180cc731461005c5780635d78650e1461008c578063608e3178146100be578063d99d13f5146100ee578063f28bcf921461011e575b600080fd5b610076600480360381019061007191906113ee565b61013a565b6040516100839190611689565b60405180910390f35b6100a660048036038101906100a191906112e6565b61014b565b6040516100b593929190611652565b60405180910390f35b6100d860048036038101906100d3919061130f565b610276565b6040516100e59190611689565b60405180910390f35b6101086004803603810190610103919061134b565b61030a565b60405161011591906116c4565b60405180910390f35b61013860048036038101906101339190611387565b610627565b005b600080826000015151119050919050565b6000806000610158610e28565b6000808673ffffffffffffffffffffffffffffffffffffffff1673ffffffffffffffffffffffffffffffffffffffff1681526020019081526020016000206040518060600160405290816000820160009054906101000a900473ffffffffffffffffffffffffffffffffffffffff1673ffffffffffffffffffffffffffffffffffffffff1673ffffffffffffffffffffffffffffffffffffffff1681526020016001820160009054906101000a900473ffffffffffffffffffffffffffffffffffffffff1673ffffffffffffffffffffffffffffffffffffffff1673ffffffffffffffffffffffffffffffffffffffff1681526020016002820154815250509050806000015181602001518260400151935093509350509193909250565b6000600260008473ffffffffffffffffffffffffffffffffffffffff1673ffffffffffffffffffffffffffffffffffffffff16815260200190815260200160002060008373ffffffffffffffffffffffffffffffffffffffff1673ffffffffffffffffffffffffffffffffffffffff16815260200190815260200160002060009054906101000a900460ff16905092915050565b610312610e75565b600160008473ffffffffffffffffffffffffffffffffffffffff1673ffffffffffffffffffffffffffffffffffffffff16815260200190815260200160002060008381526020019081526020016000206040518060c0016040529081600082018054806020026020016040519081016040528092919081815260200182805480156103f257602002820191906000526020600020905b8160009054906101000a900473ffffffffffffffffffffffffffffffffffffffff1673ffffffffffffffffffffffffffffffffffffffff16815260200190600101908083116103a8575b505050505081526020016001820180548060200260200160405190810160405280929190818152602001828054801561048057602002820191906000526020600020905b8160009054906101000a900473ffffffffffffffffffffffffffffffffffffffff1673ffffffffffffffffffffffffffffffffffffffff1681526020019060010190808311610436575b505050505081526020016002820180548060200260200160405190810160405280929190818152602001828054801561050e57602002820191906000526020600020905b8160009054906101000a900473ffffffffffffffffffffffffffffffffffffffff1673ffffffffffffffffffffffffffffffffffffffff16815260200190600101908083116104c4575b505050505081526020016003820180548060200260200160405190810160405280929190818152602001828054801561056657602002820191906000526020600020905b815481526020019060010190808311610552575b50505050508152602001600482018054806020026020016040519081016040528092919081815260200182805480156105be57602002820191906000526020600020905b8154815260200190600101908083116105aa575b505050505081526020016005820180548060200260200160405190810160405280929190818152602001828054801561061657602002820191906000526020600020905b815481526020019060010190808311610602575b505050505081525050905092915050565b60006106333385610666565b9050610640818484610706565b610648610e75565b6106538285856108f0565b905061065e8161013a565b505050505050565b6000600260008473ffffffffffffffffffffffffffffffffffffffff1673ffffffffffffffffffffffffffffffffffffffff16815260200190815260200160002060008373ffffffffffffffffffffffffffffffffffffffff1673ffffffffffffffffffffffffffffffffffffffff16815260200190815260200160002060009054906101000a900460ff166106fc57826106fe565b815b905092915050565b60008090505b81518110156108ea5761071d610eab565b82828151811061072957fe5b602002602001015190506000816000015190506000600781111561074957fe5b81600781111561075557fe5b1415610829576107a16000808873ffffffffffffffffffffffffffffffffffffffff1673ffffffffffffffffffffffffffffffffffffffff168152602001908152602001600020610c86565b6000808773ffffffffffffffffffffffffffffffffffffffff1673ffffffffffffffffffffffffffffffffffffffff168152602001908152602001600020600201548514610824576040517f08c379a000000000000000000000000000000000000000000000000000000000815260040161081b906116a4565b60405180910390fd5b6108db565b60078081111561083557fe5b81600781111561084157fe5b146108da5784826060015114801561089a57506000808773ffffffffffffffffffffffffffffffffffffffff1673ffffffffffffffffffffffffffffffffffffffff168152602001908152602001600020600201548511155b6108d9576040517f08c379a00000000000000000000000000000000000000000000000000000000081526004016108d0906116a4565b60405180910390fd5b5b5b5050808060010191505061070c565b50505050565b6108f8610e75565b60008090505b825181101561096f5761090f610eab565b83828151811061091b57fe5b602002602001015190506000816000015190506001600781111561093b57fe5b81600781111561094757fe5b14156109605761095f8761095a84610c9d565b610d17565b5b505080806001019150506108fe565b50600160008573ffffffffffffffffffffffffffffffffffffffff1673ffffffffffffffffffffffffffffffffffffffff16815260200190815260200160002060008481526020019081526020016000206040518060c001604052908160008201805480602002602001604051908101604052809291908181526020018280548015610a5057602002820191906000526020600020905b8160009054906101000a900473ffffffffffffffffffffffffffffffffffffffff1673ffffffffffffffffffffffffffffffffffffffff1681526020019060010190808311610a06575b5050505050815260200160018201805480602002602001604051908101604052809291908181526020018280548015610ade57602002820191906000526020600020905b8160009054906101000a900473ffffffffffffffffffffffffffffffffffffffff1673ffffffffffffffffffffffffffffffffffffffff1681526020019060010190808311610a94575b5050505050815260200160028201805480602002602001604051908101604052809291908181526020018280548015610b6c57602002820191906000526020600020905b8160009054906101000a900473ffffffffffffffffffffffffffffffffffffffff1673ffffffffffffffffffffffffffffffffffffffff1681526020019060010190808311610b22575b5050505050815260200160038201805480602002602001604051908101604052809291908181526020018280548015610bc457602002820191906000526020600020905b815481526020019060010190808311610bb0575b5050505050815260200160048201805480602002602001604051908101604052809291908181526020018280548015610c1c57602002820191906000526020600020905b815481526020019060010190808311610c08575b5050505050815260200160058201805480602002602001604051908101604052809291908181526020018280548015610c7457602002820191906000526020600020905b815481526020019060010190808311610c60575b50505050508152505090509392505050565b806002016000815480929190600101919050555050565b610ca5610f18565b60016007811115610cb257fe5b82600001516007811115610cc257fe5b14610cc957fe5b6040518060800160405280836040015173ffffffffffffffffffffffffffffffffffffffff16815260200183606001518152602001836080015181526020018360a001518152509050919050565b610d8d816000015182604001518360600151600160008773ffffffffffffffffffffffffffffffffffffffff1673ffffffffffffffffffffffffffffffffffffffff168152602001908152602001600020600086602001518152602001908152602001600020610d91909392919063ffffffff16565b5050565b82846000018281548110610da157fe5b9060005260206000200160006101000a81548173ffffffffffffffffffffffffffffffffffffffff021916908373ffffffffffffffffffffffffffffffffffffffff16021790555081846003018281548110610df957fe5b906000526020600020015401846003018281548110610e1457fe5b906000526020600020018190555050505050565b6040518060600160405280600073ffffffffffffffffffffffffffffffffffffffff168152602001600073ffffffffffffffffffffffffffffffffffffffff168152602001600081525090565b6040518060c001604052806060815260200160608152602001606081526020016060815260200160608152602001606081525090565b6040518060c0016040528060006007811115610ec357fe5b8152602001600073ffffffffffffffffffffffffffffffffffffffff168152602001600073ffffffffffffffffffffffffffffffffffffffff1681526020016000815260200160008152602001600081525090565b6040518060800160405280600073ffffffffffffffffffffffffffffffffffffffff1681526020016000815260200160008152602001600081525090565b600081359050610f6581611856565b92915050565b600082601f830112610f7c57600080fd5b8135610f8f610f8a82611713565b6116e6565b91508181835260208401935060208101905083856020840282011115610fb457600080fd5b60005b83811015610fe45781610fca8882610f56565b845260208401935060208301925050600181019050610fb7565b5050505092915050565b600082601f830112610fff57600080fd5b813561101261100d8261173b565b6116e6565b915081818352602084019350602081019050838560c084028201111561103757600080fd5b60005b83811015611067578161104d8882611109565b845260208401935060c0830192505060018101905061103a565b5050505092915050565b600082601f83011261108257600080fd5b813561109561109082611763565b6116e6565b915081818352602084019350602081019050838560208402820111156110ba57600080fd5b60005b838110156110ea57816110d088826112d1565b8452602084019350602083019250506001810190506110bd565b5050505092915050565b6000813590506111038161186d565b92915050565b600060c0828403121561111b57600080fd5b61112560c06116e6565b90506000611135848285016110f4565b600083015250602061114984828501610f56565b602083015250604061115d84828501610f56565b6040830152506060611171848285016112d1565b6060830152506080611185848285016112d1565b60808301525060a0611199848285016112d1565b60a08301525092915050565b600060c082840312156111b757600080fd5b6111c160c06116e6565b9050600082013567ffffffffffffffff8111156111dd57600080fd5b6111e984828501610f6b565b600083015250602082013567ffffffffffffffff81111561120957600080fd5b61121584828501610f6b565b602083015250604082013567ffffffffffffffff81111561123557600080fd5b61124184828501610f6b565b604083015250606082013567ffffffffffffffff81111561126157600080fd5b61126d84828501611071565b606083015250608082013567ffffffffffffffff81111561128d57600080fd5b61129984828501611071565b60808301525060a082013567ffffffffffffffff8111156112b957600080fd5b6112c584828501611071565b60a08301525092915050565b6000813590506112e08161187d565b92915050565b6000602082840312156112f857600080fd5b600061130684828501610f56565b91505092915050565b6000806040838503121561132257600080fd5b600061133085828601610f56565b925050602061134185828601610f56565b9150509250929050565b6000806040838503121561135e57600080fd5b600061136c85828601610f56565b925050602061137d858286016112d1565b9150509250929050565b60008060006060848603121561139c57600080fd5b60006113aa86828701610f56565b93505060206113bb868287016112d1565b925050604084013567ffffffffffffffff8111156113d857600080fd5b6113e486828701610fee565b9150509250925092565b60006020828403121561140057600080fd5b600082013567ffffffffffffffff81111561141a57600080fd5b611426848285016111a5565b91505092915050565b600061143b838361145f565b60208301905092915050565b60006114538383611634565b60208301905092915050565b6114688161180e565b82525050565b6114778161180e565b82525050565b6000611488826117ab565b61149281856117db565b935061149d8361178b565b8060005b838110156114ce5781516114b5888261142f565b97506114c0836117c1565b9250506001810190506114a1565b5085935050505092915050565b60006114e6826117b6565b6114f081856117ec565b93506114fb8361179b565b8060005b8381101561152c5781516115138882611447565b975061151e836117ce565b9250506001810190506114ff565b5085935050505092915050565b61154281611820565b82525050565b60006115556010836117fd565b91507f496e76616c6964207661756c74206964000000000000000000000000000000006000830152602082019050919050565b600060c08301600083015184820360008601526115a5828261147d565b915050602083015184820360208601526115bf828261147d565b915050604083015184820360408601526115d9828261147d565b915050606083015184820360608601526115f382826114db565b9150506080830151848203608086015261160d82826114db565b91505060a083015184820360a086015261162782826114db565b9150508091505092915050565b61163d8161184c565b82525050565b61164c8161184c565b82525050565b6000606082019050611667600083018661146e565b611674602083018561146e565b6116816040830184611643565b949350505050565b600060208201905061169e6000830184611539565b92915050565b600060208201905081810360008301526116bd81611548565b9050919050565b600060208201905081810360008301526116de8184611588565b905092915050565b6000604051905081810181811067ffffffffffffffff8211171561170957600080fd5b8060405250919050565b600067ffffffffffffffff82111561172a57600080fd5b602082029050602081019050919050565b600067ffffffffffffffff82111561175257600080fd5b602082029050602081019050919050565b600067ffffffffffffffff82111561177a57600080fd5b602082029050602081019050919050565b6000819050602082019050919050565b6000819050602082019050919050565b600081519050919050565b600081519050919050565b6000602082019050919050565b6000602082019050919050565b600082825260208201905092915050565b600082825260208201905092915050565b600082825260208201905092915050565b60006118198261182c565b9050919050565b60008115159050919050565b600073ffffffffffffffffffffffffffffffffffffffff82169050919050565b6000819050919050565b61185f8161180e565b811461186a57600080fd5b50565b6008811061187a57600080fd5b50565b6118868161184c565b811461189157600080fd5b5056fea26469706673582212205bee6749426f7bd1de9f2a1ab80443f452719112e08141f8134ba3b558ca41b164736f6c63430006090033",
  "source": "// SPDX-License-Identifier: MIT\npragma solidity 0.6.9;\n\npragma experimental ABIEncoderV2;\n\nimport { MarginAccount } from \"./lib/MarginAccount.sol\";\nimport { Actions } from \"./lib/Actions.sol\";\n\ncontract Controller3\n{\n    using MarginAccount for MarginAccount.Account;\n    using MarginAccount for MarginAccount.Vault;\n\n\n    mapping(address => MarginAccount.Account) internal accounts;\n    mapping(address => mapping(uint256 => MarginAccount.Vault)) internal vaults;\n    mapping(address => mapping(address => bool)) internal accountOperator;\n\n    function operate(\n        address _user,\n        uint256 _vaultId,\n        Actions.ActionArgs[] memory _actions\n    )\n        external\n    {\n\n        address accountAddress = _verifyInputs(msg.sender, _user);\n\n        _runPreprocessing(accountAddress, _vaultId, _actions);\n\n        MarginAccount.Vault memory finalVault = _runActions(\n            accountAddress,\n            _vaultId,\n            _actions\n        );\n\n        verifyFinalState(\n            finalVault\n        );\n    }\n\n    function getAccountData(address _accountOwner) external view returns (address, address, uint256) {\n        MarginAccount.Account memory account = accounts[_accountOwner];\n\n        return (\n            account.owner,\n            account.operator,\n            account.vaultIds\n        );\n    }\n\n    function getVault(address _accountOwner, uint256 _vaultId) external view returns (MarginAccount.Vault memory) {\n\t\treturn vaults[_accountOwner][_vaultId];\n\t}\n\n    function isVaultOperator(address _operator, address _accountOwner) public view returns (bool) {\n        return accountOperator[_operator][_accountOwner];\n    }\n\n    // check if sender is operator of an account, return the owner address, else return the sender address\n    function _verifyInputs(address _sender, address _user) internal view returns (address) {\n        return accountOperator[_sender][_user] ? _user : _sender;\n    }\n\n    // will check for Open Vault actions, execute them and make sure there is not vault id greater than vault counter;\n    function _runPreprocessing(\n        address _accountAddress,\n        uint256 _vaultId,\n        Actions.ActionArgs[] memory _actions\n    ) internal {\n        for(uint256 i = 0; i < _actions.length; i++) {\n            Actions.ActionArgs memory action = _actions[i];\n            Actions.ActionType actionType = action.actionType;\n            if (actionType == Actions.ActionType.OpenVault) {\n                accounts[_accountAddress].updateOnOpenVault();\n                \n                require(_vaultId == accounts[_accountAddress].vaultIds, \"Invalid vault id\");\n            }\n            else if (actionType != Actions.ActionType.Call) {\n                require((action.vaultId == _vaultId) && (_vaultId <= accounts[_accountAddress].vaultIds), \"Invalid vault id\");\n            }\n        }\n    }\n\n    function _runActions(\n        address _accountAddress,\n        uint256 _vaultId,\n        Actions.ActionArgs[] memory _actions\n    ) internal returns (MarginAccount.Vault memory) {\n        for (uint256 i = 0; i < _actions.length; i++) {\n            Actions.ActionArgs memory action = _actions[i];\n            Actions.ActionType actionType = action.actionType;\n\n            if (actionType == Actions.ActionType.MintShortOption) {\n                _mint(_accountAddress, Actions.parseMintShortOptionArgs(action));\n            }\n            /*else if (actionType == Actions.ActionType.Withdraw) {\n                _withdraw(state, Actions.parseWithdrawArgs(accounts, action));\n            }\n            else if (actionType == Actions.ActionType.Transfer) {\n                _transfer(state, Actions.parseTransferArgs(accounts, action));\n            }\n            else if (actionType == Actions.ActionType.Buy) {\n                _buy(state, Actions.parseBuyArgs(accounts, action));\n            }\n            else if (actionType == Actions.ActionType.Sell) {\n                _sell(state, Actions.parseSellArgs(accounts, action));\n            }\n            else if (actionType == Actions.ActionType.Trade) {\n                _trade(state, Actions.parseTradeArgs(accounts, action));\n            }\n            else if (actionType == Actions.ActionType.Liquidate) {\n                _liquidate(state, Actions.parseLiquidateArgs(accounts, action), cache);\n            }\n            else if (actionType == Actions.ActionType.Vaporize) {\n                _vaporize(state, Actions.parseVaporizeArgs(accounts, action), cache);\n            }\n            else  {\n                assert(actionType == Actions.ActionType.Call);\n                _call(state, Actions.parseCallArgs(accounts, action));\n            }*/\n        }\n\n        return vaults[_accountAddress][_vaultId];\n    }\n\n    function _mint(\n        address _accountAddress,\n        Actions.MintShortOptionArgs memory args\n    )\n        private\n    {\n        vaults[_accountAddress][args.vaultId].updateOnMintShort(args.shortOption, args.amount, args.index);\n\n        // call Otoken mint\n    }\n\n    function verifyFinalState(\n        MarginAccount.Vault memory _vault\n    ) public returns (bool) {\n        return _vault.shortAssets.length > 0;\n    }\n\n}\n",
  "sourcePath": "/Users/haythem96/Projects/testStruct/contracts/DyDx/Controller3.sol",
  "compiler": {
    "name": "solc",
    "version": "0.6.9+commit.3e3065ac.Emscripten.clang"
  },
  "schemaVersion": "3.0.23",
  "updatedAt": "2020-07-12T01:00:24.225Z",
  "networkType": "ethereum",
  "devdoc": {
    "methods": {}
  },
  "userdoc": {
    "methods": {}
  }
}