{
  "contractName": "Controller2",
  "abi": [
    {
      "inputs": [
        {
          "internalType": "address",
          "name": "_calculator",
          "type": "address"
        }
      ],
      "stateMutability": "nonpayable",
      "type": "constructor"
    },
    {
      "inputs": [
        {
          "internalType": "address",
          "name": "_user",
          "type": "address"
        }
      ],
      "name": "getVaultCounter",
      "outputs": [
        {
          "internalType": "uint256",
          "name": "",
          "type": "uint256"
        }
      ],
      "stateMutability": "view",
      "type": "function"
    },
    {
      "inputs": [
        {
          "internalType": "address[]",
          "name": "_shortAssets",
          "type": "address[]"
        },
        {
          "internalType": "address[]",
          "name": "_longAssets",
          "type": "address[]"
        },
        {
          "internalType": "address[]",
          "name": "_collAssets",
          "type": "address[]"
        },
        {
          "internalType": "uint256[]",
          "name": "_shortAmounts",
          "type": "uint256[]"
        },
        {
          "internalType": "uint256[]",
          "name": "_longAmounts",
          "type": "uint256[]"
        },
        {
          "internalType": "uint256[]",
          "name": "_collAmounts",
          "type": "uint256[]"
        },
        {
          "internalType": "address",
          "name": "_user",
          "type": "address"
        }
      ],
      "name": "openVault",
      "outputs": [],
      "stateMutability": "nonpayable",
      "type": "function"
    },
    {
      "inputs": [
        {
          "internalType": "uint256",
          "name": "_vaultId",
          "type": "uint256"
        },
        {
          "internalType": "address[]",
          "name": "_shortAssets",
          "type": "address[]"
        },
        {
          "internalType": "address[]",
          "name": "_longAssets",
          "type": "address[]"
        },
        {
          "internalType": "address[]",
          "name": "_collAssets",
          "type": "address[]"
        },
        {
          "internalType": "uint256[]",
          "name": "_shortAmounts",
          "type": "uint256[]"
        },
        {
          "internalType": "uint256[]",
          "name": "_longAmounts",
          "type": "uint256[]"
        },
        {
          "internalType": "uint256[]",
          "name": "_collAmounts",
          "type": "uint256[]"
        }
      ],
      "name": "closeVault",
      "outputs": [],
      "stateMutability": "nonpayable",
      "type": "function"
    },
    {
      "inputs": [
        {
          "internalType": "address",
          "name": "_user",
          "type": "address"
        },
        {
          "internalType": "uint256",
          "name": "_vaultId",
          "type": "uint256"
        },
        {
          "internalType": "address[]",
          "name": "_shortAssets",
          "type": "address[]"
        },
        {
          "internalType": "address[]",
          "name": "_longAssets",
          "type": "address[]"
        },
        {
          "internalType": "address[]",
          "name": "_collAssets",
          "type": "address[]"
        },
        {
          "internalType": "uint256[]",
          "name": "_shortAmounts",
          "type": "uint256[]"
        },
        {
          "internalType": "uint256[]",
          "name": "_longAmounts",
          "type": "uint256[]"
        },
        {
          "internalType": "uint256[]",
          "name": "_collAmounts",
          "type": "uint256[]"
        }
      ],
      "name": "checkMarginRequirement",
      "outputs": [
        {
          "internalType": "bool",
          "name": "",
          "type": "bool"
        },
        {
          "internalType": "uint256",
          "name": "",
          "type": "uint256"
        }
      ],
      "stateMutability": "view",
      "type": "function"
    },
    {
      "inputs": [
        {
          "internalType": "address",
          "name": "_user",
          "type": "address"
        },
        {
          "internalType": "uint256",
          "name": "_vaultId",
          "type": "uint256"
        }
      ],
      "name": "getVault",
      "outputs": [
        {
          "components": [
            {
              "internalType": "address[]",
              "name": "shortAssets",
              "type": "address[]"
            },
            {
              "internalType": "address[]",
              "name": "longAssets",
              "type": "address[]"
            },
            {
              "internalType": "address[]",
              "name": "collAssets",
              "type": "address[]"
            },
            {
              "internalType": "uint256[]",
              "name": "shortAmounts",
              "type": "uint256[]"
            },
            {
              "internalType": "uint256[]",
              "name": "longAmounts",
              "type": "uint256[]"
            },
            {
              "internalType": "uint256[]",
              "name": "collAmounts",
              "type": "uint256[]"
            }
          ],
          "internalType": "struct MarginAccountLib2.Vault",
          "name": "",
          "type": "tuple"
        }
      ],
      "stateMutability": "view",
      "type": "function"
    },
    {
      "inputs": [
        {
          "internalType": "uint256",
          "name": "ui",
          "type": "uint256"
        }
      ],
      "name": "bitShift",
      "outputs": [
        {
          "internalType": "uint256",
          "name": "",
          "type": "uint256"
        }
      ],
      "stateMutability": "pure",
      "type": "function"
    }
  ],
  "bytecode": "0x60806040523480156200001157600080fd5b5060405162001fa538038062001fa5833981810160405281019062000037919062000095565b806000806101000a81548173ffffffffffffffffffffffffffffffffffffffff021916908373ffffffffffffffffffffffffffffffffffffffff160217905550506200010f565b6000815190506200008f81620000f5565b92915050565b600060208284031215620000a857600080fd5b6000620000b8848285016200007e565b91505092915050565b6000620000ce82620000d5565b9050919050565b600073ffffffffffffffffffffffffffffffffffffffff82169050919050565b6200010081620000c1565b81146200010c57600080fd5b50565b611e86806200011f6000396000f3fe608060405234801561001057600080fd5b50600436106100625760003560e01c806331e5323b146100675780635a4b79d2146100975780635e9fa548146100c8578063664b09de146100f8578063722cc9fc14610114578063d99d13f514610130575b600080fd5b610081600480360381019061007c91906112ac565b610160565b60405161008e9190611bd4565b60405180910390f35b6100b160048036038101906100ac9190611311565b6101b1565b6040516100bf929190611b07565b60405180910390f35b6100e260048036038101906100dd9190611581565b610551565b6040516100ef9190611bd4565b60405180910390f35b610112600480360381019061010d9190611453565b61055f565b005b61012e600480360381019061012991906115d3565b610832565b005b61014a600480360381019061014591906112d5565b610a60565b6040516101579190611b90565b60405180910390f35b600080600160008473ffffffffffffffffffffffffffffffffffffffff1673ffffffffffffffffffffffffffffffffffffffff16815260200190815260200160002090508060000154915050919050565b60008084518851146101f8576040517f08c379a00000000000000000000000000000000000000000000000000000000081526004016101ef90611b30565b60405180910390fd5b835187511461023c576040517f08c379a000000000000000000000000000000000000000000000000000000000815260040161023390611b30565b60405180910390fd5b8251865114610280576040517f08c379a000000000000000000000000000000000000000000000000000000000815260040161027790611b30565b60405180910390fd5b6102886110b7565b6102928b8b610a60565b9050856000815181106102a157fe5b602002602001015181606001516000815181106102ba57fe5b60200260200101510181606001516000815181106102d457fe5b602002602001018181525050846000815181106102ed57fe5b6020026020010151816080015160008151811061030657fe5b602002602001015101816080015160008151811061032057fe5b6020026020010181815250508360008151811061033957fe5b60200260200101518160a0015160008151811061035257fe5b6020026020010151018160a0015160008151811061036c57fe5b6020026020010181815250508860008151811061038557fe5b6020026020010151816000015160008151811061039e57fe5b602002602001019073ffffffffffffffffffffffffffffffffffffffff16908173ffffffffffffffffffffffffffffffffffffffff1681525050876000815181106103e557fe5b602002602001015181602001516000815181106103fe57fe5b602002602001019073ffffffffffffffffffffffffffffffffffffffff16908173ffffffffffffffffffffffffffffffffffffffff16815250508660008151811061044557fe5b6020026020010151816040015160008151811061045e57fe5b602002602001019073ffffffffffffffffffffffffffffffffffffffff16908173ffffffffffffffffffffffffffffffffffffffff16815250506000809054906101000a900473ffffffffffffffffffffffffffffffffffffffff1673ffffffffffffffffffffffffffffffffffffffff1663e3f63204826040518263ffffffff1660e01b81526004016104f29190611b90565b60206040518083038186803b15801561050a57600080fd5b505afa15801561051e573d6000803e3d6000fd5b505050506040513d601f19601f8201168201806040525081019061054291906115aa565b50509850989650505050505050565b6000601f82901b9050919050565b83518751146105a3576040517f08c379a000000000000000000000000000000000000000000000000000000000815260040161059a90611b30565b60405180910390fd5b82518651146105e7576040517f08c379a00000000000000000000000000000000000000000000000000000000081526004016105de90611b30565b60405180910390fd5b815185511461062b576040517f08c379a000000000000000000000000000000000000000000000000000000000815260040161062290611b30565b60405180910390fd5b6000600160008373ffffffffffffffffffffffffffffffffffffffff1673ffffffffffffffffffffffffffffffffffffffff16815260200190815260200160002090506106e081898989898989600260008b73ffffffffffffffffffffffffffffffffffffffff1673ffffffffffffffffffffffffffffffffffffffff16815260200190815260200160002060008a600001548152602001908152602001600020610e1490979695949392919063ffffffff16565b60008060009054906101000a900473ffffffffffffffffffffffffffffffffffffffff1673ffffffffffffffffffffffffffffffffffffffff1663e3f63204600260008673ffffffffffffffffffffffffffffffffffffffff1673ffffffffffffffffffffffffffffffffffffffff1681526020019081526020016000206000600186600001540381526020019081526020016000206040518263ffffffff1660e01b81526004016107929190611bb2565b60206040518083038186803b1580156107aa57600080fd5b505afa1580156107be573d6000803e3d6000fd5b505050506040513d601f19601f820116820180604052508101906107e291906115aa565b905060008114610827576040517f08c379a000000000000000000000000000000000000000000000000000000000815260040161081e90611b50565b60405180910390fd5b505050505050505050565b8251865114610876576040517f08c379a000000000000000000000000000000000000000000000000000000000815260040161086d90611b30565b60405180910390fd5b81518551146108ba576040517f08c379a00000000000000000000000000000000000000000000000000000000081526004016108b190611b30565b60405180910390fd5b80518451146108fe576040517f08c379a00000000000000000000000000000000000000000000000000000000081526004016108f590611b30565b60405180910390fd5b6109066110ed565b600160003373ffffffffffffffffffffffffffffffffffffffff1673ffffffffffffffffffffffffffffffffffffffff168152602001908152602001600020604051806020016040529081600082015481525050905087816000015110156109a3576040517f08c379a000000000000000000000000000000000000000000000000000000000815260040161099a90611b70565b60405180910390fd5b600260003373ffffffffffffffffffffffffffffffffffffffff1673ffffffffffffffffffffffffffffffffffffffff168152602001908152602001600020600089815260200190815260200160002060008082016000610a049190611100565b600182016000610a149190611100565b600282016000610a249190611100565b600382016000610a349190611121565b600482016000610a449190611121565b600582016000610a549190611121565b50505050505050505050565b610a686110b7565b6000600160008573ffffffffffffffffffffffffffffffffffffffff1673ffffffffffffffffffffffffffffffffffffffff16815260200190815260200160002090508281600001541015610af2576040517f08c379a0000000000000000000000000000000000000000000000000000000008152600401610ae990611b70565b60405180910390fd5b610afa6110b7565b600260008673ffffffffffffffffffffffffffffffffffffffff1673ffffffffffffffffffffffffffffffffffffffff16815260200190815260200160002060008581526020019081526020016000206040518060c001604052908160008201805480602002602001604051908101604052809291908181526020018280548015610bda57602002820191906000526020600020905b8160009054906101000a900473ffffffffffffffffffffffffffffffffffffffff1673ffffffffffffffffffffffffffffffffffffffff1681526020019060010190808311610b90575b5050505050815260200160018201805480602002602001604051908101604052809291908181526020018280548015610c6857602002820191906000526020600020905b8160009054906101000a900473ffffffffffffffffffffffffffffffffffffffff1673ffffffffffffffffffffffffffffffffffffffff1681526020019060010190808311610c1e575b5050505050815260200160028201805480602002602001604051908101604052809291908181526020018280548015610cf657602002820191906000526020600020905b8160009054906101000a900473ffffffffffffffffffffffffffffffffffffffff1673ffffffffffffffffffffffffffffffffffffffff1681526020019060010190808311610cac575b5050505050815260200160038201805480602002602001604051908101604052809291908181526020018280548015610d4e57602002820191906000526020600020905b815481526020019060010190808311610d3a575b5050505050815260200160048201805480602002602001604051908101604052809291908181526020018280548015610da657602002820191906000526020600020905b815481526020019060010190808311610d92575b5050505050815260200160058201805480602002602001604051908101604052809291908181526020018280548015610dfe57602002820191906000526020600020905b815481526020019060010190808311610dea575b5050505050815250509050809250505092915050565b60008090505b8651811015610ee65788600001878281518110610e3357fe5b60200260200101519080600181540180825580915050600190039060005260206000200160009091909190916101000a81548173ffffffffffffffffffffffffffffffffffffffff021916908373ffffffffffffffffffffffffffffffffffffffff16021790555088600301848281518110610eab57fe5b602002602001015190806001815401808255809150506001900390600052602060002001600090919091909150558080600101915050610e1a565b5060008090505b8551811015610fb95788600101868281518110610f0657fe5b60200260200101519080600181540180825580915050600190039060005260206000200160009091909190916101000a81548173ffffffffffffffffffffffffffffffffffffffff021916908373ffffffffffffffffffffffffffffffffffffffff16021790555088600401838281518110610f7e57fe5b602002602001015190806001815401808255809150506001900390600052602060002001600090919091909150558080600101915050610eed565b5060008090505b845181101561108c5788600201858281518110610fd957fe5b60200260200101519080600181540180825580915050600190039060005260206000200160009091909190916101000a81548173ffffffffffffffffffffffffffffffffffffffff021916908373ffffffffffffffffffffffffffffffffffffffff1602179055508860050182828151811061105157fe5b602002602001015190806001815401808255809150506001900390600052602060002001600090919091909150558080600101915050610fc0565b50611096876110a0565b5050505050505050565b806000016000815480929190600101919050555050565b6040518060c001604052806060815260200160608152602001606081526020016060815260200160608152602001606081525090565b6040518060200160405280600081525090565b508054600082559060005260206000209081019061111e9190611142565b50565b508054600082559060005260206000209081019061113f9190611142565b50565b61116491905b80821115611160576000816000905550600101611148565b5090565b90565b60008135905061117681611e22565b92915050565b600082601f83011261118d57600080fd5b81356111a061119b82611c1c565b611bef565b915081818352602084019350602081019050838560208402820111156111c557600080fd5b60005b838110156111f557816111db8882611167565b8452602084019350602083019250506001810190506111c8565b5050505092915050565b600082601f83011261121057600080fd5b813561122361121e82611c44565b611bef565b9150818183526020840193506020810190508385602084028201111561124857600080fd5b60005b83811015611278578161125e8882611282565b84526020840193506020830192505060018101905061124b565b5050505092915050565b60008135905061129181611e39565b92915050565b6000815190506112a681611e39565b92915050565b6000602082840312156112be57600080fd5b60006112cc84828501611167565b91505092915050565b600080604083850312156112e857600080fd5b60006112f685828601611167565b925050602061130785828601611282565b9150509250929050565b600080600080600080600080610100898b03121561132e57600080fd5b600061133c8b828c01611167565b985050602061134d8b828c01611282565b975050604089013567ffffffffffffffff81111561136a57600080fd5b6113768b828c0161117c565b965050606089013567ffffffffffffffff81111561139357600080fd5b61139f8b828c0161117c565b955050608089013567ffffffffffffffff8111156113bc57600080fd5b6113c88b828c0161117c565b94505060a089013567ffffffffffffffff8111156113e557600080fd5b6113f18b828c016111ff565b93505060c089013567ffffffffffffffff81111561140e57600080fd5b61141a8b828c016111ff565b92505060e089013567ffffffffffffffff81111561143757600080fd5b6114438b828c016111ff565b9150509295985092959890939650565b600080600080600080600060e0888a03121561146e57600080fd5b600088013567ffffffffffffffff81111561148857600080fd5b6114948a828b0161117c565b975050602088013567ffffffffffffffff8111156114b157600080fd5b6114bd8a828b0161117c565b965050604088013567ffffffffffffffff8111156114da57600080fd5b6114e68a828b0161117c565b955050606088013567ffffffffffffffff81111561150357600080fd5b61150f8a828b016111ff565b945050608088013567ffffffffffffffff81111561152c57600080fd5b6115388a828b016111ff565b93505060a088013567ffffffffffffffff81111561155557600080fd5b6115618a828b016111ff565b92505060c06115728a828b01611167565b91505092959891949750929550565b60006020828403121561159357600080fd5b60006115a184828501611282565b91505092915050565b6000602082840312156115bc57600080fd5b60006115ca84828501611297565b91505092915050565b600080600080600080600060e0888a0312156115ee57600080fd5b60006115fc8a828b01611282565b975050602088013567ffffffffffffffff81111561161957600080fd5b6116258a828b0161117c565b965050604088013567ffffffffffffffff81111561164257600080fd5b61164e8a828b0161117c565b955050606088013567ffffffffffffffff81111561166b57600080fd5b6116778a828b0161117c565b945050608088013567ffffffffffffffff81111561169457600080fd5b6116a08a828b016111ff565b93505060a088013567ffffffffffffffff8111156116bd57600080fd5b6116c98a828b016111ff565b92505060c088013567ffffffffffffffff8111156116e657600080fd5b6116f28a828b016111ff565b91505092959891949750929550565b600061170d8383611731565b60208301905092915050565b60006117258383611ae9565b60208301905092915050565b61173a81611d73565b82525050565b600061174b82611cb6565b6117558185611d16565b935061176083611c6c565b8060005b838110156117915781516117788882611701565b975061178383611ce2565b925050600181019050611764565b5085935050505092915050565b60006117a982611cc1565b6117b38185611d16565b93506117be83611c7c565b8060005b838110156117f6576117d382611def565b6117dd8882611701565b97506117e883611cef565b9250506001810190506117c2565b5085935050505092915050565b600061180e82611ccc565b6118188185611d27565b935061182383611c91565b8060005b8381101561185457815161183b8882611719565b975061184683611cfc565b925050600181019050611827565b5085935050505092915050565b600061186c82611cd7565b6118768185611d27565b935061188183611ca1565b8060005b838110156118b95761189682611e02565b6118a08882611719565b97506118ab83611d09565b925050600181019050611885565b5085935050505092915050565b6118cf81611d85565b82525050565b60006118e2600c83611d38565b91507f6572726f72206c656e67746800000000000000000000000000000000000000006000830152602082019050919050565b6000611922600b83611d38565b91507f6d617267696e206661696c0000000000000000000000000000000000000000006000830152602082019050919050565b6000611962600e83611d38565b91507f6572726f72207661756c742069640000000000000000000000000000000000006000830152602082019050919050565b600060c08301600083015184820360008601526119b28282611740565b915050602083015184820360208601526119cc8282611740565b915050604083015184820360408601526119e68282611740565b91505060608301518482036060860152611a008282611803565b91505060808301518482036080860152611a1a8282611803565b91505060a083015184820360a0860152611a348282611803565b9150508091505092915050565b600060c0830160008084018583036000870152611a5e838261179e565b925050600184018583036020870152611a77838261179e565b925050600284018583036040870152611a90838261179e565b925050600384018583036060870152611aa98382611861565b925050600484018583036080870152611ac28382611861565b9250506005840185830360a0870152611adb8382611861565b925050819250505092915050565b611af281611db1565b82525050565b611b0181611db1565b82525050565b6000604082019050611b1c60008301856118c6565b611b296020830184611af8565b9392505050565b60006020820190508181036000830152611b49816118d5565b9050919050565b60006020820190508181036000830152611b6981611915565b9050919050565b60006020820190508181036000830152611b8981611955565b9050919050565b60006020820190508181036000830152611baa8184611995565b905092915050565b60006020820190508181036000830152611bcc8184611a41565b905092915050565b6000602082019050611be96000830184611af8565b92915050565b6000604051905081810181811067ffffffffffffffff82111715611c1257600080fd5b8060405250919050565b600067ffffffffffffffff821115611c3357600080fd5b602082029050602081019050919050565b600067ffffffffffffffff821115611c5b57600080fd5b602082029050602081019050919050565b6000819050602082019050919050565b60008190508160005260206000209050919050565b6000819050602082019050919050565b60008190508160005260206000209050919050565b600081519050919050565b600081549050919050565b600081519050919050565b600081549050919050565b6000602082019050919050565b6000600182019050919050565b6000602082019050919050565b6000600182019050919050565b600082825260208201905092915050565b600082825260208201905092915050565b600082825260208201905092915050565b600073ffffffffffffffffffffffffffffffffffffffff82169050919050565b6000819050919050565b6000611d7e82611d91565b9050919050565b60008115159050919050565b600073ffffffffffffffffffffffffffffffffffffffff82169050919050565b6000819050919050565b6000611dce611dc983611e15565b611d49565b9050919050565b6000611de8611de383611e15565b611d69565b9050919050565b6000611dfb8254611dbb565b9050919050565b6000611e0e8254611dd5565b9050919050565b60008160001c9050919050565b611e2b81611d73565b8114611e3657600080fd5b50565b611e4281611db1565b8114611e4d57600080fd5b5056fea26469706673582212207e1f902cf5885c00de598df7ab050737e26e9552964443d72dfefb1a3a357a1a64736f6c63430006090033",
  "source": "// SPDX-License-Identifier: MIT\npragma solidity 0.6.9;\n\n\npragma experimental ABIEncoderV2;\n\nimport \"./MarginAccountLib2.sol\";\nimport \"./MarginCalculator2.sol\";\n\ncontract Controller2 {\n    \n    using MarginAccountLib2 for MarginAccountLib2.Account;\n    using MarginAccountLib2 for MarginAccountLib2.Vault;\n\n    MarginCalculator2 calculator;\n\n    mapping(address => MarginAccountLib2.Account) internal accounts;\n    mapping(address => mapping(uint256 => MarginAccountLib2.Vault)) internal accountVaults;\n\n    constructor(address _calculator) public {\n        calculator = MarginCalculator2(_calculator);\n    }\n\n    function getVaultCounter(address _user) external view returns (uint256) {\n        MarginAccountLib2.Account storage account = accounts[_user];\n\n        return account.vaultCounter;\n    }\n\n    function openVault(\n\t\taddress[] memory _shortAssets,\n\t\taddress[] memory _longAssets,\n\t\taddress[] memory _collAssets,\n\t\tuint256[] memory _shortAmounts,\n\t\tuint256[] memory _longAmounts,\n\t\tuint256[] memory _collAmounts,\n        address _user\n    ) public {\n        require(_shortAssets.length == _shortAmounts.length, \"error length\");\n        require(_longAssets.length == _longAmounts.length, \"error length\");\n        require(_collAssets.length == _collAmounts.length, \"error length\");\n\n        MarginAccountLib2.Account storage account = accounts[_user];\n\n        accountVaults[_user][account.vaultCounter].updateOnOpen(\n            account,\n            _shortAssets,\n            _longAssets,\n            _collAssets,\n            _shortAmounts,\n            _longAmounts,\n            _collAmounts\n        );\n\n        uint256 marginRequirement = calculator.marginRequirement(accountVaults[_user][account.vaultCounter-1]);\n\n        require(marginRequirement == 0, \"margin fail\");\n    }\n\n    function closeVault(\n        uint256 _vaultId,\n        address[] memory _shortAssets,\n        address[] memory _longAssets,\n        address[] memory _collAssets,\n        uint256[] memory _shortAmounts,\n        uint256[] memory _longAmounts,\n        uint256[] memory _collAmounts\n    ) external {\n        require(_shortAssets.length == _shortAmounts.length, \"error length\");\n        require(_longAssets.length == _longAmounts.length, \"error length\");\n        require(_collAssets.length == _collAmounts.length, \"error length\");\n\n        MarginAccountLib2.Account memory account = accounts[msg.sender];\n\n        require(account.vaultCounter >= _vaultId, \"error vault id\");\n\n        delete accountVaults[msg.sender][_vaultId];\n    }\n\n    function checkMarginRequirement(\n        address _user,\n        uint256 _vaultId,\n        address[] memory _shortAssets,\n        address[] memory _longAssets,\n        address[] memory _collAssets,\n        uint256[] memory _shortAmounts,\n        uint256[] memory _longAmounts,\n        uint256[] memory _collAmounts\n    ) external view returns (bool, uint256) {\n        require(_shortAssets.length == _shortAmounts.length, \"error length\");\n        require(_longAssets.length == _longAmounts.length, \"error length\");\n        require(_collAssets.length == _collAmounts.length, \"error length\");\n\n        MarginAccountLib2.Vault memory vault = getVault(_user, _vaultId);\n        \n        vault.shortAmounts[0] = vault.shortAmounts[0] + _shortAmounts[0];\n        vault.longAmounts[0] = vault.longAmounts[0] + _longAmounts[0];\n\n        vault.collAmounts[0] = vault.collAmounts[0] + _collAmounts[0];\n\n        vault.shortAssets[0] = _shortAssets[0];\n        vault.longAssets[0] = _longAssets[0];\n\n        vault.collAssets[0] = _collAssets[0];\n\n        calculator.marginRequirement(vault);\n    }\n\n    function getVault(address _user, uint256 _vaultId) public view returns (MarginAccountLib2.Vault memory) {\n        MarginAccountLib2.Account storage account = accounts[_user];\n\n        require(account.vaultCounter >= _vaultId, \"error vault id\");\n\n\t\tMarginAccountLib2.Vault memory vault = accountVaults[_user][_vaultId];\n\n\t\treturn vault;\n\t}\n\n    function bitShift(uint256 ui) external pure returns(uint256) {\n        return  ui<<31;\n    }\n\n}",
  "sourcePath": "/Users/haythem96/Projects/testStruct/contracts/impl2/Controller2.sol",
  "compiler": {
    "name": "solc",
    "version": "0.6.9+commit.3e3065ac.Emscripten.clang"
  },
  "schemaVersion": "3.0.23",
  "updatedAt": "2020-07-05T21:40:41.180Z",
  "devdoc": {
    "methods": {}
  },
  "userdoc": {
    "methods": {}
  }
}