{
  "contractName": "MarginAccount",
  "abi": [
    {
      "inputs": [
        {
          "internalType": "address",
          "name": "_controller",
          "type": "address"
        }
      ],
      "stateMutability": "nonpayable",
      "type": "constructor"
    },
    {
      "inputs": [
        {
          "internalType": "address[]",
          "name": "_shortAssets",
          "type": "address[]"
        },
        {
          "internalType": "address[]",
          "name": "_longAssets",
          "type": "address[]"
        },
        {
          "internalType": "address[]",
          "name": "_collAssets",
          "type": "address[]"
        },
        {
          "internalType": "uint256[]",
          "name": "_shortAmounts",
          "type": "uint256[]"
        },
        {
          "internalType": "uint256[]",
          "name": "_longAmounts",
          "type": "uint256[]"
        },
        {
          "internalType": "uint256[]",
          "name": "_collAmounts",
          "type": "uint256[]"
        }
      ],
      "name": "openVault",
      "outputs": [],
      "stateMutability": "nonpayable",
      "type": "function"
    },
    {
      "inputs": [
        {
          "internalType": "uint256",
          "name": "_vaultId",
          "type": "uint256"
        },
        {
          "internalType": "address[]",
          "name": "_shortAssets",
          "type": "address[]"
        },
        {
          "internalType": "address[]",
          "name": "_longAssets",
          "type": "address[]"
        },
        {
          "internalType": "address[]",
          "name": "_collAssets",
          "type": "address[]"
        },
        {
          "internalType": "uint256[]",
          "name": "_shortAmounts",
          "type": "uint256[]"
        },
        {
          "internalType": "uint256[]",
          "name": "_longAmounts",
          "type": "uint256[]"
        },
        {
          "internalType": "uint256[]",
          "name": "_collAmounts",
          "type": "uint256[]"
        }
      ],
      "name": "closeVault",
      "outputs": [],
      "stateMutability": "nonpayable",
      "type": "function"
    }
  ],
  "bytecode": "0x608060405234801561001057600080fd5b5060405162001183380380620011838339818101604052810190610034919061008f565b806000806101000a81548173ffffffffffffffffffffffffffffffffffffffff021916908373ffffffffffffffffffffffffffffffffffffffff16021790555050610101565b600081519050610089816100ea565b92915050565b6000602082840312156100a157600080fd5b60006100af8482850161007a565b91505092915050565b60006100c3826100ca565b9050919050565b600073ffffffffffffffffffffffffffffffffffffffff82169050919050565b6100f3816100b8565b81146100fe57600080fd5b50565b61107280620001116000396000f3fe608060405234801561001057600080fd5b50600436106100365760003560e01c8063722cc9fc1461003b578063d7dc807e14610057575b600080fd5b61005560048036038101906100509190610cf6565b610073565b005b610071600480360381019061006c9190610bdd565b61022b565b005b82518651146100b7576040517f08c379a00000000000000000000000000000000000000000000000000000000081526004016100ae90610ee4565b60405180910390fd5b81518551146100fb576040517f08c379a00000000000000000000000000000000000000000000000000000000081526004016100f290610ee4565b60405180910390fd5b805184511461013f576040517f08c379a000000000000000000000000000000000000000000000000000000000815260040161013690610ee4565b60405180910390fd5b6000600160003373ffffffffffffffffffffffffffffffffffffffff1673ffffffffffffffffffffffffffffffffffffffff168152602001908152602001600020905087816000015410156101c9576040517f08c379a00000000000000000000000000000000000000000000000000000000081526004016101c090610f24565b60405180910390fd5b610221600260003373ffffffffffffffffffffffffffffffffffffffff1673ffffffffffffffffffffffffffffffffffffffff16815260200190815260200160002060008a8152602001908152602001600020610489565b5050505050505050565b6000809054906101000a900473ffffffffffffffffffffffffffffffffffffffff1673ffffffffffffffffffffffffffffffffffffffff163373ffffffffffffffffffffffffffffffffffffffff16146102ba576040517f08c379a00000000000000000000000000000000000000000000000000000000081526004016102b190610f04565b60405180910390fd5b82518651146102fe576040517f08c379a00000000000000000000000000000000000000000000000000000000081526004016102f590610ee4565b60405180910390fd5b8151855114610342576040517f08c379a000000000000000000000000000000000000000000000000000000000815260040161033990610ee4565b60405180910390fd5b8051845114610386576040517f08c379a000000000000000000000000000000000000000000000000000000000815260040161037d90610ee4565b60405180910390fd5b6000600160003373ffffffffffffffffffffffffffffffffffffffff1673ffffffffffffffffffffffffffffffffffffffff1681526020019081526020016000209050610410600160003373ffffffffffffffffffffffffffffffffffffffff1673ffffffffffffffffffffffffffffffffffffffff1681526020019081526020016000206106d5565b610480878787878787600260003373ffffffffffffffffffffffffffffffffffffffff1673ffffffffffffffffffffffffffffffffffffffff1681526020019081526020016000206000896000015481526020019081526020016000206106ec909695949392919063ffffffff16565b50505050505050565b60008090505b81600301805490508160ff161015610531576000826000016000846003018460ff16815481106104bb57fe5b9060005260206000200160009054906101000a900473ffffffffffffffffffffffffffffffffffffffff1673ffffffffffffffffffffffffffffffffffffffff1673ffffffffffffffffffffffffffffffffffffffff16815260200190815260200160002081905550808060010191505061048f565b5060008090505b81600401805490508160ff1610156105da576000826000016000846004018460ff168154811061056457fe5b9060005260206000200160009054906101000a900473ffffffffffffffffffffffffffffffffffffffff1673ffffffffffffffffffffffffffffffffffffffff1673ffffffffffffffffffffffffffffffffffffffff168152602001908152602001600020819055508080600101915050610538565b5060008090505b81600501805490508160ff161015610683576000826000016000846005018460ff168154811061060d57fe5b9060005260206000200160009054906101000a900473ffffffffffffffffffffffffffffffffffffffff1673ffffffffffffffffffffffffffffffffffffffff1673ffffffffffffffffffffffffffffffffffffffff1681526020019081526020016000208190555080806001019150506105e1565b5060608082600301908051906020019061069e929190610917565b50808260040190805190602001906106b7929190610917565b50808260050190805190602001906106d0929190610917565b505050565b806000016000815480929190600101919050555050565b60008090505b8c8c90508160ff16101561078b5786868260ff1681811061070f57fe5b905060200201358e60000160008f8f8560ff1681811061072b57fe5b90506020020160208101906107409190610bb4565b73ffffffffffffffffffffffffffffffffffffffff1673ffffffffffffffffffffffffffffffffffffffff1681526020019081526020016000208190555080806001019150506106f2565b5060008090505b8a8a90508160ff16101561082b5784848260ff168181106107af57fe5b905060200201358e60010160008d8d8560ff168181106107cb57fe5b90506020020160208101906107e09190610bb4565b73ffffffffffffffffffffffffffffffffffffffff1673ffffffffffffffffffffffffffffffffffffffff168152602001908152602001600020819055508080600101915050610792565b5060008090505b888890508160ff1610156108cb5782828260ff1681811061084f57fe5b905060200201358e60020160008b8b8560ff1681811061086b57fe5b90506020020160208101906108809190610bb4565b73ffffffffffffffffffffffffffffffffffffffff1673ffffffffffffffffffffffffffffffffffffffff168152602001908152602001600020819055508080600101915050610832565b508b8b8e60030191906108df9291906109a1565b5089898e60040191906108f39291906109a1565b5087878e60050191906109079291906109a1565b5050505050505050505050505050565b828054828255906000526020600020908101928215610990579160200282015b8281111561098f5782518260006101000a81548173ffffffffffffffffffffffffffffffffffffffff021916908373ffffffffffffffffffffffffffffffffffffffff16021790555091602001919060010190610937565b5b50905061099d9190610a41565b5090565b828054828255906000526020600020908101928215610a30579160200282015b82811115610a2f57823573ffffffffffffffffffffffffffffffffffffffff168260006101000a81548173ffffffffffffffffffffffffffffffffffffffff021916908373ffffffffffffffffffffffffffffffffffffffff160217905550916020019190600101906109c1565b5b509050610a3d9190610a41565b5090565b610a8191905b80821115610a7d57600081816101000a81549073ffffffffffffffffffffffffffffffffffffffff021916905550600101610a47565b5090565b90565b600081359050610a938161100e565b92915050565b600082601f830112610aaa57600080fd5b8135610abd610ab882610f71565b610f44565b91508181835260208401935060208101905083856020840282011115610ae257600080fd5b60005b83811015610b125781610af88882610a84565b845260208401935060208301925050600181019050610ae5565b5050505092915050565b600082601f830112610b2d57600080fd5b8135610b40610b3b82610f99565b610f44565b91508181835260208401935060208101905083856020840282011115610b6557600080fd5b60005b83811015610b955781610b7b8882610b9f565b845260208401935060208301925050600181019050610b68565b5050505092915050565b600081359050610bae81611025565b92915050565b600060208284031215610bc657600080fd5b6000610bd484828501610a84565b91505092915050565b60008060008060008060c08789031215610bf657600080fd5b600087013567ffffffffffffffff811115610c1057600080fd5b610c1c89828a01610a99565b965050602087013567ffffffffffffffff811115610c3957600080fd5b610c4589828a01610a99565b955050604087013567ffffffffffffffff811115610c6257600080fd5b610c6e89828a01610a99565b945050606087013567ffffffffffffffff811115610c8b57600080fd5b610c9789828a01610b1c565b935050608087013567ffffffffffffffff811115610cb457600080fd5b610cc089828a01610b1c565b92505060a087013567ffffffffffffffff811115610cdd57600080fd5b610ce989828a01610b1c565b9150509295509295509295565b600080600080600080600060e0888a031215610d1157600080fd5b6000610d1f8a828b01610b9f565b975050602088013567ffffffffffffffff811115610d3c57600080fd5b610d488a828b01610a99565b965050604088013567ffffffffffffffff811115610d6557600080fd5b610d718a828b01610a99565b955050606088013567ffffffffffffffff811115610d8e57600080fd5b610d9a8a828b01610a99565b945050608088013567ffffffffffffffff811115610db757600080fd5b610dc38a828b01610b1c565b93505060a088013567ffffffffffffffff811115610de057600080fd5b610dec8a828b01610b1c565b92505060c088013567ffffffffffffffff811115610e0957600080fd5b610e158a828b01610b1c565b91505092959891949750929550565b6000610e31600c83610fc1565b91507f6572726f72206c656e67746800000000000000000000000000000000000000006000830152602082019050919050565b6000610e71601683610fc1565b91507f636f6e74726f6c6c65722061757468206661696c6564000000000000000000006000830152602082019050919050565b6000610eb1600e83610fc1565b91507f6572726f72207661756c742069640000000000000000000000000000000000006000830152602082019050919050565b60006020820190508181036000830152610efd81610e24565b9050919050565b60006020820190508181036000830152610f1d81610e64565b9050919050565b60006020820190508181036000830152610f3d81610ea4565b9050919050565b6000604051905081810181811067ffffffffffffffff82111715610f6757600080fd5b8060405250919050565b600067ffffffffffffffff821115610f8857600080fd5b602082029050602081019050919050565b600067ffffffffffffffff821115610fb057600080fd5b602082029050602081019050919050565b600082825260208201905092915050565b6000610fdd82610fe4565b9050919050565b600073ffffffffffffffffffffffffffffffffffffffff82169050919050565b6000819050919050565b61101781610fd2565b811461102257600080fd5b50565b61102e81611004565b811461103957600080fd5b5056fea2646970667358221220d9bdc2635df4d15a46df7e1b5f14af8076be442599f622515edf50af795aadb064736f6c63430006090033",
  "source": "// SPDX-License-Identifier: MIT\npragma solidity 0.6.9;\n\n\npragma experimental ABIEncoderV2;\n\nimport \"./MarginAccountLib.sol\";\nimport \"./Controller.sol\";\n\ncontract MarginAccount {\n    \n    using MarginAccountLib for MarginAccountLib.Account;\n    using MarginAccountLib for MarginAccountLib.Vault;\n\n    Controller controller;\n\n    mapping(address => MarginAccountLib.Account) internal accounts;\n    mapping(address => mapping(uint256 => MarginAccountLib.Vault)) internal accountVaults;\n\n    constructor(address _controller) public {\n        controller = Controller(_controller);\n    }\n\n    /*function openVault(\n        address _user,\n\t\taddress[] memory _shortAssets,\n\t\taddress[] memory _longAssets,\n\t\taddress[] memory _collAssets,\n\t\tuint256[] memory _shortAmounts,\n\t\tuint256[] memory _longAmounts,\n\t\tuint256[] memory _collAmounts\n    ) public {\n        require(msg.sender == address(controller), \"controller auth failed\");\n        require(_shortAssets.length == _shortAmounts.length, \"error length\");\n        require(_longAssets.length == _longAmounts.length, \"error length\");\n        require(_collAssets.length == _collAmounts.length, \"error length\");\n\n        MarginAccountLib.Account storage account = accounts[_user];\n\n        accounts[_user].setReserveId();\n\n        accountVaults[_user][account.vaultCounter].updateOnOpen(\n            _shortAssets,\n            _longAssets,\n            _collAssets,\n            _shortAmounts,\n            _longAmounts,\n            _collAmounts\n        );\n    }\n\n    function closeVault(\n        address _user,\n        uint256 _vaultId,\n        address[] memory _shortAssets,\n        address[] memory _longAssets,\n        address[] memory _collAssets,\n        uint256[] memory _shortAmounts,\n        uint256[] memory _longAmounts,\n        uint256[] memory _collAmounts\n    ) external {\n        require(_shortAssets.length == _shortAmounts.length, \"error length\");\n        require(_longAssets.length == _longAmounts.length, \"error length\");\n        require(_collAssets.length == _collAmounts.length, \"error length\");\n\n        MarginAccountLib.Account storage account = accounts[_user];\n\n        require(account.vaultCounter >= _vaultId, \"error vault id\");\n\n        accountVaults[_user][_vaultId].updateOnClose();\n    }*/\n\n    /*function getVault(address _user, uint256 _vaultId) external view returns (MarginAccountLib.Vault memory) {\n\t\tMarginAccountLib.Vault memory vault = _self.vaults[id];\n\n\t\treturn vault;\n\t}*/\n\n\n    function openVault(\n\t\taddress[] memory _shortAssets,\n\t\taddress[] memory _longAssets,\n\t\taddress[] memory _collAssets,\n\t\tuint256[] memory _shortAmounts,\n\t\tuint256[] memory _longAmounts,\n\t\tuint256[] memory _collAmounts\n    ) public {\n        require(msg.sender == address(controller), \"controller auth failed\");\n        require(_shortAssets.length == _shortAmounts.length, \"error length\");\n        require(_longAssets.length == _longAmounts.length, \"error length\");\n        require(_collAssets.length == _collAmounts.length, \"error length\");\n\n        MarginAccountLib.Account storage account = accounts[msg.sender];\n\n        accounts[msg.sender].setReserveId();\n\n        accountVaults[msg.sender][account.vaultCounter].updateOnOpen(\n            _shortAssets,\n            _longAssets,\n            _collAssets,\n            _shortAmounts,\n            _longAmounts,\n            _collAmounts\n        );\n    }\n\n    function closeVault(\n        uint256 _vaultId,\n        address[] memory _shortAssets,\n        address[] memory _longAssets,\n        address[] memory _collAssets,\n        uint256[] memory _shortAmounts,\n        uint256[] memory _longAmounts,\n        uint256[] memory _collAmounts\n    ) external {\n        require(_shortAssets.length == _shortAmounts.length, \"error length\");\n        require(_longAssets.length == _longAmounts.length, \"error length\");\n        require(_collAssets.length == _collAmounts.length, \"error length\");\n\n        MarginAccountLib.Account storage account = accounts[msg.sender];\n\n        require(account.vaultCounter >= _vaultId, \"error vault id\");\n\n        accountVaults[msg.sender][_vaultId].updateOnClose();\n    }\n\n}",
  "sourcePath": "/Users/haythem96/Projects/testStruct/contracts/MarginAccount.sol",
  "compiler": {
    "name": "solc",
    "version": "0.6.9+commit.3e3065ac.Emscripten.clang"
  },
  "schemaVersion": "3.0.23",
  "updatedAt": "2020-07-03T21:32:07.594Z",
  "devdoc": {
    "methods": {}
  },
  "userdoc": {
    "methods": {}
  }
}