{
  "contractName": "MarginCalculator2",
  "abi": [
    {
      "inputs": [
        {
          "components": [
            {
              "internalType": "address[]",
              "name": "shortAssets",
              "type": "address[]"
            },
            {
              "internalType": "address[]",
              "name": "longAssets",
              "type": "address[]"
            },
            {
              "internalType": "address[]",
              "name": "collAssets",
              "type": "address[]"
            },
            {
              "internalType": "uint256[]",
              "name": "shortAmounts",
              "type": "uint256[]"
            },
            {
              "internalType": "uint256[]",
              "name": "longAmounts",
              "type": "uint256[]"
            },
            {
              "internalType": "uint256[]",
              "name": "collAmounts",
              "type": "uint256[]"
            }
          ],
          "internalType": "struct MarginAccountLib2.Vault",
          "name": "_vault",
          "type": "tuple"
        }
      ],
      "name": "marginRequirement",
      "outputs": [
        {
          "internalType": "uint256",
          "name": "",
          "type": "uint256"
        }
      ],
      "stateMutability": "pure",
      "type": "function"
    }
  ],
  "bytecode": "0x608060405234801561001057600080fd5b50610508806100206000396000f3fe608060405234801561001057600080fd5b506004361061002b5760003560e01c8063e3f6320414610030575b600080fd5b61004a6004803603810190610045919061030f565b610060565b60405161005791906103bf565b60405180910390f35b60006001826000015151146100aa576040517f08c379a00000000000000000000000000000000000000000000000000000000081526004016100a19061039f565b60405180910390fd5b60009050919050565b6000813590506100c2816104a4565b92915050565b600082601f8301126100d957600080fd5b81356100ec6100e782610407565b6103da565b9150818183526020840193506020810190508385602084028201111561011157600080fd5b60005b83811015610141578161012788826100b3565b845260208401935060208301925050600181019050610114565b5050505092915050565b600082601f83011261015c57600080fd5b813561016f61016a8261042f565b6103da565b9150818183526020840193506020810190508385602084028201111561019457600080fd5b60005b838110156101c457816101aa88826102fa565b845260208401935060208301925050600181019050610197565b5050505092915050565b600060c082840312156101e057600080fd5b6101ea60c06103da565b9050600082013567ffffffffffffffff81111561020657600080fd5b610212848285016100c8565b600083015250602082013567ffffffffffffffff81111561023257600080fd5b61023e848285016100c8565b602083015250604082013567ffffffffffffffff81111561025e57600080fd5b61026a848285016100c8565b604083015250606082013567ffffffffffffffff81111561028a57600080fd5b6102968482850161014b565b606083015250608082013567ffffffffffffffff8111156102b657600080fd5b6102c28482850161014b565b60808301525060a082013567ffffffffffffffff8111156102e257600080fd5b6102ee8482850161014b565b60a08301525092915050565b600081359050610309816104bb565b92915050565b60006020828403121561032157600080fd5b600082013567ffffffffffffffff81111561033b57600080fd5b610347848285016101ce565b91505092915050565b600061035d601983610457565b91507f6572726f722073686f727420617373657473206c656e677468000000000000006000830152602082019050919050565b6103998161049a565b82525050565b600060208201905081810360008301526103b881610350565b9050919050565b60006020820190506103d46000830184610390565b92915050565b6000604051905081810181811067ffffffffffffffff821117156103fd57600080fd5b8060405250919050565b600067ffffffffffffffff82111561041e57600080fd5b602082029050602081019050919050565b600067ffffffffffffffff82111561044657600080fd5b602082029050602081019050919050565b600082825260208201905092915050565b60006104738261047a565b9050919050565b600073ffffffffffffffffffffffffffffffffffffffff82169050919050565b6000819050919050565b6104ad81610468565b81146104b857600080fd5b50565b6104c48161049a565b81146104cf57600080fd5b5056fea2646970667358221220c6d97485487aab1b6a50c12643ffa2468e775f746eb87090d6864ec557ddc92064736f6c63430006090033",
  "source": "// SPDX-License-Identifier: MIT\npragma solidity 0.6.9;\n\n\npragma experimental ABIEncoderV2;\n\nimport \"./MarginAccountLib2.sol\";\n\ncontract MarginCalculator2 {\n\n    function marginRequirement(\n        MarginAccountLib2.Vault memory _vault\n    ) external pure returns (uint256) {\n        require(_vault.shortAssets.length == 1, \"error short assets length\");\n\n        return 0;\n    }\n\n}",
  "sourcePath": "/Users/haythem96/Projects/testStruct/contracts/impl2/MarginCalculator2.sol",
  "compiler": {
    "name": "solc",
    "version": "0.6.9+commit.3e3065ac.Emscripten.clang"
  },
  "schemaVersion": "3.0.23",
  "updatedAt": "2020-07-05T21:40:41.188Z",
  "devdoc": {
    "methods": {}
  },
  "userdoc": {
    "methods": {}
  }
}